{
  "_format": "hh-sol-artifact-1",
  "contractName": "BeefyTimelockCaller",
  "sourceName": "contracts/migrators/BeefyTimelockCaller.sol",
  "abi": [
    {
      "inputs": [],
      "stateMutability": "nonpayable",
      "type": "constructor"
    },
    {
      "inputs": [],
      "name": "chainId",
      "outputs": [
        {
          "internalType": "uint256",
          "name": "",
          "type": "uint256"
        }
      ],
      "stateMutability": "view",
      "type": "function"
    },
    {
      "inputs": [],
      "name": "executeProposals",
      "outputs": [],
      "stateMutability": "nonpayable",
      "type": "function"
    },
    {
      "inputs": [],
      "name": "gov",
      "outputs": [
        {
          "internalType": "address",
          "name": "",
          "type": "address"
        }
      ],
      "stateMutability": "view",
      "type": "function"
    },
    {
      "inputs": [
        {
          "internalType": "uint256",
          "name": "_chainId",
          "type": "uint256"
        },
        {
          "internalType": "address",
          "name": "_parent",
          "type": "address"
        }
      ],
      "name": "initialize",
      "outputs": [],
      "stateMutability": "nonpayable",
      "type": "function"
    },
    {
      "inputs": [],
      "name": "isInitialized",
      "outputs": [
        {
          "internalType": "bool",
          "name": "",
          "type": "bool"
        }
      ],
      "stateMutability": "view",
      "type": "function"
    },
    {
      "inputs": [],
      "name": "parent",
      "outputs": [
        {
          "internalType": "address",
          "name": "",
          "type": "address"
        }
      ],
      "stateMutability": "view",
      "type": "function"
    }
  ],
  "bytecode": "0x608060405234801561001057600080fd5b50600180546001600160a01b0319163317905561081e806100326000396000f3fe608060405234801561001057600080fd5b50600436106100625760003560e01c806312d43a5114610067578063135aaf7f14610085578063392e53cd1461008f57806360f96a8f146100a45780639a8a0592146100ac578063da35a26f146100c1575b600080fd5b61006f6100d4565b60405161007c91906106cf565b60405180910390f35b61008d6100e3565b005b610097610563565b60405161007c9190610784565b61006f61056c565b6100b4610580565b60405161007c91906107df565b61008d6100cf36600461060b565b610586565b6001546001600160a01b031681565b60005461010090046001600160a01b0316331461011b5760405162461bcd60e51b81526004016101129061078f565b60405180910390fd5b60025461a4b1141561033e5760408051600280825260608083018452739a94784264aaae397441c1e47fa132be4e61bdad9390929190602083019080368337019050509050735b904f19fb9ccf493b623e5c8ce91603665788b08160008151811061018257fe5b60200260200101906001600160a01b031690816001600160a01b031681525050739dbbbaecacedf53d5caa295b8293c1def2055adc816001815181106101c457fe5b6001600160a01b039290921660209283029190910190910152604080516002808252606082810190935281602001602082028036833701905050905060008160008151811061020f57fe5b60200260200101818152505060008160018151811061022a57fe5b60209081029190910101526040805160028082526060828101909352816020015b606081526020019060019003908161024b57905050905060405180604001604052806004815260200163399a149160e21b8152508160008151811061028c57fe5b602002602001018190525060405180604001604052806004815260200163399a149160e21b815250816001815181106102c157fe5b602090810291909101015260405163e38335e560e01b815260009081906001600160a01b0387169063e38335e59061030590889088908890879081906004016106e3565b600060405180830381600087803b15801561031f57600080fd5b505af1158015610333573d6000803e3d6000fd5b505050505050505050505b60025461a86a1415610561576040805160028082526060808301845273690216f462615b749beeb5aa3f1d89a2bec45ecf939092919060208301908036833701905050905073408835a5616bae0ece4d3ef821c1d1cc88a2179e816000815181106103a557fe5b60200260200101906001600160a01b031690816001600160a01b0316815250507322eafb9c7e2858cfda712940896464ddaa83d053816001815181106103e757fe5b6001600160a01b039290921660209283029190910190910152604080516002808252606082810190935281602001602082028036833701905050905060008160008151811061043257fe5b60200260200101818152505060008160018151811061044d57fe5b60209081029190910101526040805160028082526060828101909352816020015b606081526020019060019003908161046e57905050905060405180604001604052806004815260200163399a149160e21b815250816000815181106104af57fe5b602002602001018190525060405180604001604052806004815260200163399a149160e21b815250816001815181106104e457fe5b602090810291909101015260405163e38335e560e01b815260009081906001600160a01b0387169063e38335e59061052890889088908890879081906004016106e3565b600060405180830381600087803b15801561054257600080fd5b505af1158015610556573d6000803e3d6000fd5b505050505050505050505b565b60005460ff1681565b60005461010090046001600160a01b031681565b60025481565b6001546001600160a01b031633146105b05760405162461bcd60e51b81526004016101129061078f565b60005460ff16156105d35760405162461bcd60e51b8152600401610112906107b2565b600080546002939093556001600160a01b0390911661010002610100600160a81b031960ff1990931660011792909216919091179055565b6000806040838503121561061d578182fd5b8235915060208301356001600160a01b038116811461063a578182fd5b809150509250929050565b6000815180845260208085018081965082840281019150828601855b858110156106c257828403895281518051808652885b81811015610692578281018801518782018901528701610677565b818111156106a257898883890101525b5099860199601f01601f1916949094018501935090840190600101610661565b5091979650505050505050565b6001600160a01b0391909116815260200190565b60a0808252865190820181905260009060209060c0840190828a01845b828110156107255781516001600160a01b031684529284019290840190600101610700565b50505083810382850152875180825288830191830190845b818110156107595783518352928401929184019160010161073d565b5050848103604086015261076d8189610645565b606086019790975250505050608001529392505050565b901515815260200190565b6020808252600990820152683337b93134b23232b760b91b604082015260600190565b602080825260139082015272185b1c9958591e481a5b9a5d1a585b1a5e9959606a1b604082015260600190565b9081526020019056fea2646970667358221220697d48b13a9f1fad41fba7e847c4b22de08e3abbc888fa4cde8523c501f40b3c64736f6c634300060c0033",
  "linkReferences": {},
  "deployedLinkReferences": {}
}