{
  "_format": "hh-sol-artifact-1",
  "contractName": "MockOldRewardRouterV2",
  "sourceName": "contracts/mock/MockOldRewardRouterV2.sol",
  "abi": [
    {
      "anonymous": false,
      "inputs": [
        {
          "indexed": false,
          "internalType": "address",
          "name": "account",
          "type": "address"
        },
        {
          "indexed": false,
          "internalType": "uint256",
          "name": "amount",
          "type": "uint256"
        }
      ],
      "name": "StakeGlp",
      "type": "event"
    },
    {
      "anonymous": false,
      "inputs": [
        {
          "indexed": false,
          "internalType": "address",
          "name": "account",
          "type": "address"
        },
        {
          "indexed": false,
          "internalType": "address",
          "name": "token",
          "type": "address"
        },
        {
          "indexed": false,
          "internalType": "uint256",
          "name": "amount",
          "type": "uint256"
        }
      ],
      "name": "StakeGmx",
      "type": "event"
    },
    {
      "anonymous": false,
      "inputs": [
        {
          "indexed": false,
          "internalType": "address",
          "name": "account",
          "type": "address"
        },
        {
          "indexed": false,
          "internalType": "uint256",
          "name": "amount",
          "type": "uint256"
        }
      ],
      "name": "UnstakeGlp",
      "type": "event"
    },
    {
      "anonymous": false,
      "inputs": [
        {
          "indexed": false,
          "internalType": "address",
          "name": "account",
          "type": "address"
        },
        {
          "indexed": false,
          "internalType": "address",
          "name": "token",
          "type": "address"
        },
        {
          "indexed": false,
          "internalType": "uint256",
          "name": "amount",
          "type": "uint256"
        }
      ],
      "name": "UnstakeGmx",
      "type": "event"
    },
    {
      "inputs": [],
      "name": "BASIS_POINTS_DIVISOR",
      "outputs": [
        {
          "internalType": "uint256",
          "name": "",
          "type": "uint256"
        }
      ],
      "stateMutability": "view",
      "type": "function"
    },
    {
      "inputs": [
        {
          "internalType": "address",
          "name": "_sender",
          "type": "address"
        }
      ],
      "name": "acceptTransfer",
      "outputs": [],
      "stateMutability": "nonpayable",
      "type": "function"
    },
    {
      "inputs": [
        {
          "internalType": "address[]",
          "name": "_accounts",
          "type": "address[]"
        }
      ],
      "name": "batchCompoundForAccounts",
      "outputs": [],
      "stateMutability": "nonpayable",
      "type": "function"
    },
    {
      "inputs": [
        {
          "internalType": "address[]",
          "name": "_accounts",
          "type": "address[]"
        },
        {
          "internalType": "uint256[]",
          "name": "_amounts",
          "type": "uint256[]"
        }
      ],
      "name": "batchStakeGmxForAccount",
      "outputs": [],
      "stateMutability": "nonpayable",
      "type": "function"
    },
    {
      "inputs": [],
      "name": "bnGmx",
      "outputs": [
        {
          "internalType": "address",
          "name": "",
          "type": "address"
        }
      ],
      "stateMutability": "view",
      "type": "function"
    },
    {
      "inputs": [],
      "name": "bonusGmxTracker",
      "outputs": [
        {
          "internalType": "address",
          "name": "",
          "type": "address"
        }
      ],
      "stateMutability": "view",
      "type": "function"
    },
    {
      "inputs": [],
      "name": "claim",
      "outputs": [],
      "stateMutability": "nonpayable",
      "type": "function"
    },
    {
      "inputs": [],
      "name": "claimEsGmx",
      "outputs": [],
      "stateMutability": "nonpayable",
      "type": "function"
    },
    {
      "inputs": [],
      "name": "claimFees",
      "outputs": [],
      "stateMutability": "nonpayable",
      "type": "function"
    },
    {
      "inputs": [],
      "name": "compound",
      "outputs": [],
      "stateMutability": "nonpayable",
      "type": "function"
    },
    {
      "inputs": [
        {
          "internalType": "address",
          "name": "_account",
          "type": "address"
        }
      ],
      "name": "compoundForAccount",
      "outputs": [],
      "stateMutability": "nonpayable",
      "type": "function"
    },
    {
      "inputs": [],
      "name": "esGmx",
      "outputs": [
        {
          "internalType": "address",
          "name": "",
          "type": "address"
        }
      ],
      "stateMutability": "view",
      "type": "function"
    },
    {
      "inputs": [],
      "name": "feeGlpTracker",
      "outputs": [
        {
          "internalType": "address",
          "name": "",
          "type": "address"
        }
      ],
      "stateMutability": "view",
      "type": "function"
    },
    {
      "inputs": [],
      "name": "feeGmxTracker",
      "outputs": [
        {
          "internalType": "address",
          "name": "",
          "type": "address"
        }
      ],
      "stateMutability": "view",
      "type": "function"
    },
    {
      "inputs": [],
      "name": "glp",
      "outputs": [
        {
          "internalType": "address",
          "name": "",
          "type": "address"
        }
      ],
      "stateMutability": "view",
      "type": "function"
    },
    {
      "inputs": [],
      "name": "glpManager",
      "outputs": [
        {
          "internalType": "address",
          "name": "",
          "type": "address"
        }
      ],
      "stateMutability": "view",
      "type": "function"
    },
    {
      "inputs": [],
      "name": "glpVester",
      "outputs": [
        {
          "internalType": "address",
          "name": "",
          "type": "address"
        }
      ],
      "stateMutability": "view",
      "type": "function"
    },
    {
      "inputs": [],
      "name": "gmx",
      "outputs": [
        {
          "internalType": "address",
          "name": "",
          "type": "address"
        }
      ],
      "stateMutability": "view",
      "type": "function"
    },
    {
      "inputs": [],
      "name": "gmxVester",
      "outputs": [
        {
          "internalType": "address",
          "name": "",
          "type": "address"
        }
      ],
      "stateMutability": "view",
      "type": "function"
    },
    {
      "inputs": [],
      "name": "gov",
      "outputs": [
        {
          "internalType": "address",
          "name": "",
          "type": "address"
        }
      ],
      "stateMutability": "view",
      "type": "function"
    },
    {
      "inputs": [],
      "name": "govToken",
      "outputs": [
        {
          "internalType": "address",
          "name": "",
          "type": "address"
        }
      ],
      "stateMutability": "view",
      "type": "function"
    },
    {
      "inputs": [
        {
          "internalType": "bool",
          "name": "_shouldClaimGmx",
          "type": "bool"
        },
        {
          "internalType": "bool",
          "name": "_shouldStakeGmx",
          "type": "bool"
        },
        {
          "internalType": "bool",
          "name": "_shouldClaimEsGmx",
          "type": "bool"
        },
        {
          "internalType": "bool",
          "name": "_shouldStakeEsGmx",
          "type": "bool"
        },
        {
          "internalType": "bool",
          "name": "_shouldStakeMultiplierPoints",
          "type": "bool"
        },
        {
          "internalType": "bool",
          "name": "_shouldClaimWeth",
          "type": "bool"
        },
        {
          "internalType": "bool",
          "name": "_shouldConvertWethToEth",
          "type": "bool"
        }
      ],
      "name": "handleRewards",
      "outputs": [],
      "stateMutability": "nonpayable",
      "type": "function"
    },
    {
      "inputs": [],
      "name": "inStrictTransferMode",
      "outputs": [
        {
          "internalType": "bool",
          "name": "",
          "type": "bool"
        }
      ],
      "stateMutability": "view",
      "type": "function"
    },
    {
      "inputs": [
        {
          "internalType": "address",
          "name": "_weth",
          "type": "address"
        },
        {
          "internalType": "address",
          "name": "_gmx",
          "type": "address"
        },
        {
          "internalType": "address",
          "name": "_esGmx",
          "type": "address"
        },
        {
          "internalType": "address",
          "name": "_bnGmx",
          "type": "address"
        },
        {
          "internalType": "address",
          "name": "_glp",
          "type": "address"
        },
        {
          "internalType": "address",
          "name": "_stakedGmxTracker",
          "type": "address"
        },
        {
          "internalType": "address",
          "name": "_bonusGmxTracker",
          "type": "address"
        },
        {
          "internalType": "address",
          "name": "_feeGmxTracker",
          "type": "address"
        },
        {
          "internalType": "address",
          "name": "_feeGlpTracker",
          "type": "address"
        },
        {
          "internalType": "address",
          "name": "_stakedGlpTracker",
          "type": "address"
        },
        {
          "internalType": "address",
          "name": "_glpManager",
          "type": "address"
        },
        {
          "internalType": "address",
          "name": "_gmxVester",
          "type": "address"
        },
        {
          "internalType": "address",
          "name": "_glpVester",
          "type": "address"
        },
        {
          "internalType": "address",
          "name": "_govToken",
          "type": "address"
        }
      ],
      "name": "initialize",
      "outputs": [],
      "stateMutability": "nonpayable",
      "type": "function"
    },
    {
      "inputs": [],
      "name": "isInitialized",
      "outputs": [
        {
          "internalType": "bool",
          "name": "",
          "type": "bool"
        }
      ],
      "stateMutability": "view",
      "type": "function"
    },
    {
      "inputs": [],
      "name": "maxBoostBasisPoints",
      "outputs": [
        {
          "internalType": "uint256",
          "name": "",
          "type": "uint256"
        }
      ],
      "stateMutability": "view",
      "type": "function"
    },
    {
      "inputs": [
        {
          "internalType": "address",
          "name": "_token",
          "type": "address"
        },
        {
          "internalType": "uint256",
          "name": "_amount",
          "type": "uint256"
        },
        {
          "internalType": "uint256",
          "name": "_minUsdg",
          "type": "uint256"
        },
        {
          "internalType": "uint256",
          "name": "_minGlp",
          "type": "uint256"
        }
      ],
      "name": "mintAndStakeGlp",
      "outputs": [
        {
          "internalType": "uint256",
          "name": "",
          "type": "uint256"
        }
      ],
      "stateMutability": "nonpayable",
      "type": "function"
    },
    {
      "inputs": [
        {
          "internalType": "uint256",
          "name": "_minUsdg",
          "type": "uint256"
        },
        {
          "internalType": "uint256",
          "name": "_minGlp",
          "type": "uint256"
        }
      ],
      "name": "mintAndStakeGlpETH",
      "outputs": [
        {
          "internalType": "uint256",
          "name": "",
          "type": "uint256"
        }
      ],
      "stateMutability": "payable",
      "type": "function"
    },
    {
      "inputs": [
        {
          "internalType": "address",
          "name": "",
          "type": "address"
        }
      ],
      "name": "pendingReceivers",
      "outputs": [
        {
          "internalType": "address",
          "name": "",
          "type": "address"
        }
      ],
      "stateMutability": "view",
      "type": "function"
    },
    {
      "inputs": [
        {
          "internalType": "address",
          "name": "_gov",
          "type": "address"
        }
      ],
      "name": "setGov",
      "outputs": [],
      "stateMutability": "nonpayable",
      "type": "function"
    },
    {
      "inputs": [
        {
          "internalType": "bool",
          "name": "_inStrictTransferMode",
          "type": "bool"
        }
      ],
      "name": "setInStrictTransferMode",
      "outputs": [],
      "stateMutability": "nonpayable",
      "type": "function"
    },
    {
      "inputs": [
        {
          "internalType": "uint256",
          "name": "_maxBoostBasisPoints",
          "type": "uint256"
        }
      ],
      "name": "setMaxBoostBasisPoints",
      "outputs": [],
      "stateMutability": "nonpayable",
      "type": "function"
    },
    {
      "inputs": [
        {
          "internalType": "enum MockOldRewardRouterV2.VotingPowerType",
          "name": "_votingPowerType",
          "type": "uint8"
        }
      ],
      "name": "setVotingPowerType",
      "outputs": [],
      "stateMutability": "nonpayable",
      "type": "function"
    },
    {
      "inputs": [
        {
          "internalType": "address",
          "name": "_receiver",
          "type": "address"
        }
      ],
      "name": "signalTransfer",
      "outputs": [],
      "stateMutability": "nonpayable",
      "type": "function"
    },
    {
      "inputs": [
        {
          "internalType": "uint256",
          "name": "_amount",
          "type": "uint256"
        }
      ],
      "name": "stakeEsGmx",
      "outputs": [],
      "stateMutability": "nonpayable",
      "type": "function"
    },
    {
      "inputs": [
        {
          "internalType": "uint256",
          "name": "_amount",
          "type": "uint256"
        }
      ],
      "name": "stakeGmx",
      "outputs": [],
      "stateMutability": "nonpayable",
      "type": "function"
    },
    {
      "inputs": [
        {
          "internalType": "address",
          "name": "_account",
          "type": "address"
        },
        {
          "internalType": "uint256",
          "name": "_amount",
          "type": "uint256"
        }
      ],
      "name": "stakeGmxForAccount",
      "outputs": [],
      "stateMutability": "nonpayable",
      "type": "function"
    },
    {
      "inputs": [],
      "name": "stakedGlpTracker",
      "outputs": [
        {
          "internalType": "address",
          "name": "",
          "type": "address"
        }
      ],
      "stateMutability": "view",
      "type": "function"
    },
    {
      "inputs": [],
      "name": "stakedGmxTracker",
      "outputs": [
        {
          "internalType": "address",
          "name": "",
          "type": "address"
        }
      ],
      "stateMutability": "view",
      "type": "function"
    },
    {
      "inputs": [
        {
          "internalType": "address",
          "name": "_tokenOut",
          "type": "address"
        },
        {
          "internalType": "uint256",
          "name": "_glpAmount",
          "type": "uint256"
        },
        {
          "internalType": "uint256",
          "name": "_minOut",
          "type": "uint256"
        },
        {
          "internalType": "address",
          "name": "_receiver",
          "type": "address"
        }
      ],
      "name": "unstakeAndRedeemGlp",
      "outputs": [
        {
          "internalType": "uint256",
          "name": "",
          "type": "uint256"
        }
      ],
      "stateMutability": "nonpayable",
      "type": "function"
    },
    {
      "inputs": [
        {
          "internalType": "uint256",
          "name": "_glpAmount",
          "type": "uint256"
        },
        {
          "internalType": "uint256",
          "name": "_minOut",
          "type": "uint256"
        },
        {
          "internalType": "address payable",
          "name": "_receiver",
          "type": "address"
        }
      ],
      "name": "unstakeAndRedeemGlpETH",
      "outputs": [
        {
          "internalType": "uint256",
          "name": "",
          "type": "uint256"
        }
      ],
      "stateMutability": "nonpayable",
      "type": "function"
    },
    {
      "inputs": [
        {
          "internalType": "uint256",
          "name": "_amount",
          "type": "uint256"
        }
      ],
      "name": "unstakeEsGmx",
      "outputs": [],
      "stateMutability": "nonpayable",
      "type": "function"
    },
    {
      "inputs": [
        {
          "internalType": "uint256",
          "name": "_amount",
          "type": "uint256"
        }
      ],
      "name": "unstakeGmx",
      "outputs": [],
      "stateMutability": "nonpayable",
      "type": "function"
    },
    {
      "inputs": [],
      "name": "votingPowerType",
      "outputs": [
        {
          "internalType": "enum MockOldRewardRouterV2.VotingPowerType",
          "name": "",
          "type": "uint8"
        }
      ],
      "stateMutability": "view",
      "type": "function"
    },
    {
      "inputs": [],
      "name": "weth",
      "outputs": [
        {
          "internalType": "address",
          "name": "",
          "type": "address"
        }
      ],
      "stateMutability": "view",
      "type": "function"
    },
    {
      "inputs": [
        {
          "internalType": "address",
          "name": "_token",
          "type": "address"
        },
        {
          "internalType": "address",
          "name": "_account",
          "type": "address"
        },
        {
          "internalType": "uint256",
          "name": "_amount",
          "type": "uint256"
        }
      ],
      "name": "withdrawToken",
      "outputs": [],
      "stateMutability": "nonpayable",
      "type": "function"
    },
    {
      "stateMutability": "payable",
      "type": "receive"
    }
  ],
  "bytecode": "0x608060405234801561001057600080fd5b506001600081905580546001600160a01b03191633179055615f6380620000386000396000f3fe6080604052600436106102115760003560e01c806301e336671461027557806305268cff146102b8578063078580d2146102e957806308694e63146103135780630ce4018a146103495780630db79e521461035e5780630f3aa5541461048e578063126082cf146104e757806312d43a51146104fc5780631af276a6146105115780631fcd60e5146105bf5780632a9f4083146105d457806330b700021461060757806331e67c711461066357806335c1b18814610678578063364e2311146106a25780633671df25146106e7578063392e53cd146106fc5780633fc8cef31461072557806341d315b41461073a5780634e71d92d1461074f57806351c3e3b41461076457806353a8aa03146107795780635da4b8dd1461079c5780635fe3945f146107d557806364f64467146107ea578063655603a41461081457806365f8f4d0146108475780636a192a78146108735780637130262714610888578063743655ab1461092a57806378a207ee1461093f578063abb5e5e214610954578063af394d0014610993578063ba2db4f5146109a8578063cfad57a2146109d5578063d294f09314610a08578063dddfa31414610a1d578063e102f56414610a32578063e1b9db8914610a47578063e1c363b714610a7a578063ef8c599414610a8f578063ef9aacfd14610ab9578063f3daeacc14610aec578063f69e204614610b16578063fa6db1bc14610b2b57610270565b36610270576002546001600160a01b0316331461026e576040805162461bcd60e51b81526020600482015260166024820152752937baba32b91d1034b73b30b634b21039b2b73232b960511b604482015290519081900360640190fd5b005b600080fd5b34801561028157600080fd5b5061026e6004803603606081101561029857600080fd5b506001600160a01b03813581169160208101359091169060400135610b40565b3480156102c457600080fd5b506102cd610ba6565b604080516001600160a01b039092168252519081900360200190f35b3480156102f557600080fd5b5061026e6004803603602081101561030c57600080fd5b5035610bba565b34801561031f57600080fd5b50610328610c27565b6040518082600281111561033857fe5b815260200191505060405180910390f35b34801561035557600080fd5b506102cd610c37565b34801561036a57600080fd5b5061026e6004803603604081101561038157600080fd5b810190602081018135600160201b81111561039b57600080fd5b8201836020820111156103ad57600080fd5b803590602001918460208302840111600160201b831117156103ce57600080fd5b9190808060200260200160405190810160405280939291908181526020018383602002808284376000920191909152509295949360208101935035915050600160201b81111561041d57600080fd5b82018360208201111561042f57600080fd5b803590602001918460208302840111600160201b8311171561045057600080fd5b919080806020026020016040519081016040528093929190818152602001838360200280828437600092019190915250929550610c46945050505050565b34801561049a57600080fd5b506104d5600480360360808110156104b157600080fd5b506001600160a01b0381358116916020810135916040820135916060013516610d3b565b60408051918252519081900360200190f35b3480156104f357600080fd5b506104d5610fb2565b34801561050857600080fd5b506102cd610fb8565b34801561051d57600080fd5b5061026e6004803603602081101561053457600080fd5b810190602081018135600160201b81111561054e57600080fd5b82018360208201111561056057600080fd5b803590602001918460208302840111600160201b8311171561058157600080fd5b919080806020026020016040519081016040528093929190818152602001838360200280828437600092019190915250929550610fc7945050505050565b3480156105cb57600080fd5b506102cd611098565b3480156105e057600080fd5b5061026e600480360360208110156105f757600080fd5b50356001600160a01b03166110a7565b34801561061357600080fd5b5061026e600480360360e081101561062a57600080fd5b508035151590602081013515159060408101351515906060810135151590608081013515159060a081013515159060c001351515611148565b34801561066f57600080fd5b506102cd61170d565b34801561068457600080fd5b5061026e6004803603602081101561069b57600080fd5b503561171c565b3480156106ae57600080fd5b506104d5600480360360808110156106c557600080fd5b506001600160a01b03813516906020810135906040810135906060013561176e565b3480156106f357600080fd5b506102cd6119e0565b34801561070857600080fd5b506107116119ef565b604080519115158252519081900360200190f35b34801561073157600080fd5b506102cd6119ff565b34801561074657600080fd5b506102cd611a0e565b34801561075b57600080fd5b5061026e611a1d565b34801561077057600080fd5b506102cd611c7c565b6104d56004803603604081101561078f57600080fd5b5080359060200135611c8b565b3480156107a857600080fd5b5061026e600480360360408110156107bf57600080fd5b506001600160a01b038135169060200135611fea565b3480156107e157600080fd5b5061026e61209c565b3480156107f657600080fd5b5061026e6004803603602081101561080d57600080fd5b5035612141565b34801561082057600080fd5b5061026e6004803603602081101561083757600080fd5b50356001600160a01b03166121a6565b34801561085357600080fd5b5061026e6004803603602081101561086a57600080fd5b50351515612d39565b34801561087f57600080fd5b506102cd612d99565b34801561089457600080fd5b5061026e60048036036101c08110156108ac57600080fd5b506001600160a01b038135811691602081013582169160408201358116916060810135821691608082013581169160a081013582169160c082013581169160e08101358216916101008201358116916101208101358216916101408201358116916101608101358216916101808201358116916101a0013516612da8565b34801561093657600080fd5b50610711613096565b34801561094b57600080fd5b506102cd61309f565b34801561096057600080fd5b506104d56004803603606081101561097757600080fd5b50803590602081013590604001356001600160a01b03166130ae565b34801561099f57600080fd5b506102cd61339e565b3480156109b457600080fd5b5061026e600480360360208110156109cb57600080fd5b503560ff166133ad565b3480156109e157600080fd5b5061026e600480360360208110156109f857600080fd5b50356001600160a01b0316613421565b348015610a1457600080fd5b5061026e613490565b348015610a2957600080fd5b506104d56135b7565b348015610a3e57600080fd5b506102cd6135bd565b348015610a5357600080fd5b506102cd60048036036020811015610a6a57600080fd5b50356001600160a01b03166135cc565b348015610a8657600080fd5b506102cd6135e7565b348015610a9b57600080fd5b5061026e60048036036020811015610ab257600080fd5b50356135f6565b348015610ac557600080fd5b5061026e60048036036020811015610adc57600080fd5b50356001600160a01b031661365b565b348015610af857600080fd5b5061026e60048036036020811015610b0f57600080fd5b50356139ab565b348015610b2257600080fd5b5061026e613a10565b348015610b3757600080fd5b506102cd613a6b565b6001546001600160a01b03163314610b8d576040805162461bcd60e51b81526020600482015260156024820152600080516020615c55833981519152604482015290519081900360640190fd5b610ba16001600160a01b0384168383613a7a565b505050565b60105461010090046001600160a01b031681565b60026000541415610c00576040805162461bcd60e51b815260206004820152601f6024820152600080516020615c35833981519152604482015290519081900360640190fd5b6002600055600354610c1f9033906001600160a01b0316836001613acc565b506001600055565b601054600160a81b900460ff1681565b6007546001600160a01b031681565b60026000541415610c8c576040805162461bcd60e51b815260206004820152601f6024820152600080516020615c35833981519152604482015290519081900360640190fd5b60026000556001546001600160a01b03163314610cde576040805162461bcd60e51b81526020600482015260156024820152600080516020615c55833981519152604482015290519081900360640190fd5b6003546001600160a01b031660005b8351811015610d3057610d2833858381518110610d0657fe5b602002602001015184868581518110610d1b57fe5b6020026020010151614096565b600101610ced565b505060016000555050565b600060026000541415610d83576040805162461bcd60e51b815260206004820152601f6024820152600080516020615c35833981519152604482015290519081900360640190fd5b600260005583610dcf576040805162461bcd60e51b81526020600482015260126024820152711a5b9d985b1a590817d9db1c105b5bdd5b9d60721b604482015290519081900360640190fd5b600a54600b546040805163098bf59d60e01b815233600482018190526001600160a01b039384166024830152604482018990526064820181905291519193929092169163098bf59d91608480830192600092919082900301818387803b158015610e3857600080fd5b505af1158015610e4c573d6000803e3d6000fd5b5050600b546006546040805163098bf59d60e01b81526001600160a01b03878116600483018190529381166024830152604482018c90526064820193909352905191909216935063098bf59d9250608480830192600092919082900301818387803b158015610eba57600080fd5b505af1158015610ece573d6000803e3d6000fd5b5050600c54604080516371d597ad60e01b81526001600160a01b0386811660048301528b81166024830152604482018b9052606482018a905288811660848301529151600095509190921692506371d597ad9160a48082019260209290919082900301818787803b158015610f4257600080fd5b505af1158015610f56573d6000803e3d6000fd5b505050506040513d6020811015610f6c57600080fd5b5051604080516001600160a01b0385168152602081018990528151929350600080516020615e71833981519152929081900390910190a160016000559695505050505050565b61271081565b6001546001600160a01b031681565b6002600054141561100d576040805162461bcd60e51b815260206004820152601f6024820152600080516020615c35833981519152604482015290519081900360640190fd5b60026000556001546001600160a01b0316331461105f576040805162461bcd60e51b81526020600482015260156024820152600080516020615c55833981519152604482015290519081900360640190fd5b60005b815181101561108f5761108782828151811061107a57fe5b60200260200101516142b1565b600101611062565b50506001600055565b6008546001600160a01b031681565b600260005414156110ed576040805162461bcd60e51b815260206004820152601f6024820152600080516020615c35833981519152604482015290519081900360640190fd5b60026000556001546001600160a01b0316331461113f576040805162461bcd60e51b81526020600482015260156024820152600080516020615c55833981519152604482015290519081900360640190fd5b610c1f816142b1565b6002600054141561118e576040805162461bcd60e51b815260206004820152601f6024820152600080516020615c35833981519152604482015290519081900360640190fd5b60026000908155339088156112ba57600d54604080516309f4173d60e11b81526001600160a01b03858116600483018190526024830152915160009392909216916313e82e7a9160448082019260209290919082900301818787803b1580156111f657600080fd5b505af115801561120a573d6000803e3d6000fd5b505050506040513d602081101561122057600080fd5b5051600e54604080516309f4173d60e11b81526001600160a01b03878116600483018190526024830152915193945060009391909216916313e82e7a91604480830192602092919082900301818787803b15801561127d57600080fd5b505af1158015611291573d6000803e3d6000fd5b505050506040513d60208110156112a757600080fd5b505190506112b582826142cf565b925050505b8780156112c75750600081115b156112e6576003546112e690839081906001600160a01b031684614096565b6000871561140b57600754604080516309f4173d60e11b81526001600160a01b03868116600483018190526024830152915160009392909216916313e82e7a9160448082019260209290919082900301818787803b15801561134757600080fd5b505af115801561135b573d6000803e3d6000fd5b505050506040513d602081101561137157600080fd5b5051600a54604080516309f4173d60e11b81526001600160a01b03888116600483018190526024830152915193945060009391909216916313e82e7a91604480830192602092919082900301818787803b1580156113ce57600080fd5b505af11580156113e2573d6000803e3d6000fd5b505050506040513d60208110156113f857600080fd5b5051905061140682826142cf565b925050505b8680156114185750600081115b156114375760045461143790849081906001600160a01b031684614096565b85156114465761144683614330565b84156116f35783156115ee57600954604080516309f4173d60e11b81526001600160a01b038681166004830152306024830152915160009392909216916313e82e7a9160448082019260209290919082900301818787803b1580156114aa57600080fd5b505af11580156114be573d6000803e3d6000fd5b505050506040513d60208110156114d457600080fd5b5051600b54604080516309f4173d60e11b81526001600160a01b038881166004830152306024830152915193945060009391909216916313e82e7a91604480830192602092919082900301818787803b15801561153057600080fd5b505af1158015611544573d6000803e3d6000fd5b505050506040513d602081101561155a57600080fd5b50519050600061156a83836142cf565b60025460408051632e1a7d4d60e01b81526004810184905290519293506001600160a01b0390911691632e1a7d4d9160248082019260009290919082900301818387803b1580156115ba57600080fd5b505af11580156115ce573d6000803e3d6000fd5b506115e6925050506001600160a01b038716826146b5565b5050506116f3565b600954604080516309f4173d60e11b81526001600160a01b03868116600483018190526024830152915191909216916313e82e7a9160448083019260209291908290030181600087803b15801561164457600080fd5b505af1158015611658573d6000803e3d6000fd5b505050506040513d602081101561166e57600080fd5b5050600b54604080516309f4173d60e11b81526001600160a01b03868116600483018190526024830152915191909216916313e82e7a9160448083019260209291908290030181600087803b1580156116c657600080fd5b505af11580156116da573d6000803e3d6000fd5b505050506040513d60208110156116f057600080fd5b50505b6116fc8361479a565b505060016000555050505050505050565b6003546001600160a01b031681565b6001546001600160a01b03163314611769576040805162461bcd60e51b81526020600482015260156024820152600080516020615c55833981519152604482015290519081900360640190fd5b600f55565b6000600260005414156117b6576040805162461bcd60e51b815260206004820152601f6024820152600080516020615c35833981519152604482015290519081900360640190fd5b6002600055836117ff576040805162461bcd60e51b815260206004820152600f60248201526e1a5b9d985b1a590817d85b5bdd5b9d608a1b604482015290519081900360640190fd5b600c54604080516317eb2a1560e01b81523360048201819052602482018190526001600160a01b038981166044840152606483018990526084830188905260a483018790529251909360009316916317eb2a159160c480830192602092919082900301818787803b15801561187357600080fd5b505af1158015611887573d6000803e3d6000fd5b505050506040513d602081101561189d57600080fd5b5051600b5460065460408051631e42d69b60e21b81526001600160a01b03878116600483018190526024830152928316604482015260648101859052905193945091169163790b5a6c9160848082019260009290919082900301818387803b15801561190857600080fd5b505af115801561191c573d6000803e3d6000fd5b5050600a54600b5460408051631e42d69b60e21b81526001600160a01b03888116600483018190526024830152928316604482015260648101879052905191909216935063790b5a6c9250608480830192600092919082900301818387803b15801561198757600080fd5b505af115801561199b573d6000803e3d6000fd5b5050604080516001600160a01b0386168152602081018590528151600080516020615e518339815191529450908190039091019150a160016000559695505050505050565b600e546001600160a01b031681565b600154600160a01b900460ff1681565b6002546001600160a01b031681565b600d546001600160a01b031681565b60026000541415611a63576040805162461bcd60e51b815260206004820152601f6024820152600080516020615c35833981519152604482015290519081900360640190fd5b60026000908155600954604080516309f4173d60e11b8152336004820181905260248201819052915191936001600160a01b03909316926313e82e7a926044808401936020939083900390910190829087803b158015611ac257600080fd5b505af1158015611ad6573d6000803e3d6000fd5b505050506040513d6020811015611aec57600080fd5b5050600b54604080516309f4173d60e11b81526001600160a01b03848116600483018190526024830152915191909216916313e82e7a9160448083019260209291908290030181600087803b158015611b4457600080fd5b505af1158015611b58573d6000803e3d6000fd5b505050506040513d6020811015611b6e57600080fd5b5050600754604080516309f4173d60e11b81526001600160a01b03848116600483018190526024830152915191909216916313e82e7a9160448083019260209291908290030181600087803b158015611bc657600080fd5b505af1158015611bda573d6000803e3d6000fd5b505050506040513d6020811015611bf057600080fd5b5050600a54604080516309f4173d60e11b81526001600160a01b03848116600483018190526024830152915191909216916313e82e7a9160448083019260209291908290030181600087803b158015611c4857600080fd5b505af1158015611c5c573d6000803e3d6000fd5b505050506040513d6020811015611c7257600080fd5b5050600160005550565b6009546001600160a01b031681565b600060026000541415611cd3576040805162461bcd60e51b815260206004820152601f6024820152600080516020615c35833981519152604482015290519081900360640190fd5b600260005534611d1e576040805162461bcd60e51b8152602060048201526011602482015270696e76616c6964206d73672e76616c756560781b604482015290519081900360640190fd5b600260009054906101000a90046001600160a01b03166001600160a01b031663d0e30db0346040518263ffffffff1660e01b81526004016000604051808303818588803b158015611d6e57600080fd5b505af1158015611d82573d6000803e3d6000fd5b5050600254600c546040805163095ea7b360e01b81526001600160a01b039283166004820152346024820152905191909216945063095ea7b39350604480830193506020928290030181600087803b158015611ddd57600080fd5b505af1158015611df1573d6000803e3d6000fd5b505050506040513d6020811015611e0757600080fd5b5050600c54600254604080516317eb2a1560e01b815230600482015233602482018190526001600160a01b0393841660448301523460648301526084820188905260a482018790529151919360009316916317eb2a159160c48082019260209290919082900301818787803b158015611e7f57600080fd5b505af1158015611e93573d6000803e3d6000fd5b505050506040513d6020811015611ea957600080fd5b5051600b5460065460408051631e42d69b60e21b81526001600160a01b03878116600483018190526024830152928316604482015260648101859052905193945091169163790b5a6c9160848082019260009290919082900301818387803b158015611f1457600080fd5b505af1158015611f28573d6000803e3d6000fd5b5050600a54600b5460408051631e42d69b60e21b81526001600160a01b03888116600483018190526024830152928316604482015260648101879052905191909216935063790b5a6c9250608480830192600092919082900301818387803b158015611f9357600080fd5b505af1158015611fa7573d6000803e3d6000fd5b5050604080516001600160a01b0386168152602081018590528151600080516020615e518339815191529450908190039091019150a16001600055949350505050565b60026000541415612030576040805162461bcd60e51b815260206004820152601f6024820152600080516020615c35833981519152604482015290519081900360640190fd5b60026000556001546001600160a01b03163314612082576040805162461bcd60e51b81526020600482015260156024820152600080516020615c55833981519152604482015290519081900360640190fd5b60035461108f90339084906001600160a01b031684614096565b600260005414156120e2576040805162461bcd60e51b815260206004820152601f6024820152600080516020615c35833981519152604482015290519081900360640190fd5b60026000908155600754604080516309f4173d60e11b8152336004820181905260248201819052915191936001600160a01b03909316926313e82e7a926044808401936020939083900390910190829087803b158015611bc657600080fd5b60026000541415612187576040805162461bcd60e51b815260206004820152601f6024820152600080516020615c35833981519152604482015290519081900360640190fd5b6002600055600454610c1f9033906001600160a01b0316836001613acc565b600260005414156121ec576040805162461bcd60e51b815260206004820152601f6024820152600080516020615c35833981519152604482015290519081900360640190fd5b6002600055600d54604080516370a0823160e01b81526001600160a01b038481166004830152915191909216916370a08231916024808301926020929190829003018186803b15801561223e57600080fd5b505afa158015612252573d6000803e3d6000fd5b505050506040513d602081101561226857600080fd5b5051156122aa576040805162461bcd60e51b81526020600482015260186024820152600080516020615e31833981519152604482015290519081900360640190fd5b600e54604080516370a0823160e01b81526001600160a01b038481166004830152915191909216916370a08231916024808301926020929190829003018186803b1580156122f757600080fd5b505afa15801561230b573d6000803e3d6000fd5b505050506040513d602081101561232157600080fd5b505115612363576040805162461bcd60e51b81526020600482015260186024820152600080516020615e31833981519152604482015290519081900360640190fd5b6001600160a01b0381811660009081526011602052604090205433911681146123cc576040805162461bcd60e51b81526020600482015260166024820152751d1c985b9cd9995c881b9bdd081cda59db985b1b195960521b604482015290519081900360640190fd5b6001600160a01b038216600090815260116020526040902080546001600160a01b03191690556123fb8161492a565b612404826142b1565b60075460035460408051637aeceb1f60e11b81526001600160a01b03868116600483015292831660248201529051600093929092169163f5d9d63e91604480820192602092909190829003018186803b15801561246057600080fd5b505afa158015612474573d6000803e3d6000fd5b505050506040513d602081101561248a57600080fd5b5051905080156124c8576003546124ae9084906001600160a01b0316836000613acc565b6003546124c890849084906001600160a01b031684614096565b6007546004805460408051637aeceb1f60e11b81526001600160a01b0388811694820194909452918316602483015251600093929092169163f5d9d63e91604480820192602092909190829003018186803b15801561252657600080fd5b505afa15801561253a573d6000803e3d6000fd5b505050506040513d602081101561255057600080fd5b50519050801561258e576004546125749085906001600160a01b0316836000613acc565b60045461258e90859085906001600160a01b031684614096565b60095460055460408051637aeceb1f60e11b81526001600160a01b03888116600483015292831660248201529051600093929092169163f5d9d63e91604480820192602092909190829003018186803b1580156125ea57600080fd5b505afa1580156125fe573d6000803e3d6000fd5b505050506040513d602081101561261457600080fd5b505190508015612721576009546005546040805163098bf59d60e01b81526001600160a01b038981166004830181905293811660248301526044820186905260648201939093529051919092169163098bf59d91608480830192600092919082900301818387803b15801561268857600080fd5b505af115801561269c573d6000803e3d6000fd5b505060095460055460408051631e42d69b60e21b81526001600160a01b038b811660048301528a81166024830152928316604482015260648101879052905191909216935063790b5a6c9250608480830192600092919082900301818387803b15801561270857600080fd5b505af115801561271c573d6000803e3d6000fd5b505050505b6000600460009054906101000a90046001600160a01b03166001600160a01b03166370a08231876040518263ffffffff1660e01b815260040180826001600160a01b0316815260200191505060206040518083038186803b15801561278557600080fd5b505afa158015612799573d6000803e3d6000fd5b505050506040513d60208110156127af57600080fd5b5051905080156128485760048054604080516323b872dd60e01b81526001600160a01b038a811694820194909452888416602482015260448101859052905192909116916323b872dd916064808201926020929091908290030181600087803b15801561281b57600080fd5b505af115801561282f573d6000803e3d6000fd5b505050506040513d602081101561284557600080fd5b50505b600554604080516370a0823160e01b81526001600160a01b038981166004830152915160009392909216916370a0823191602480820192602092909190829003018186803b15801561289957600080fd5b505afa1580156128ad573d6000803e3d6000fd5b505050506040513d60208110156128c357600080fd5b5051905080156129a85760055460408051632770a7eb60e21b81526001600160a01b038a811660048301526024820185905291519190921691639dc29fac91604480830192600092919082900301818387803b15801561292257600080fd5b505af1158015612936573d6000803e3d6000fd5b5050600554604080516340c10f1960e01b81526001600160a01b038b811660048301526024820187905291519190921693506340c10f199250604480830192600092919082900301818387803b15801561298f57600080fd5b505af11580156129a3573d6000803e3d6000fd5b505050505b600b5460065460408051637aeceb1f60e11b81526001600160a01b038b8116600483015292831660248201529051600093929092169163f5d9d63e91604480820192602092909190829003018186803b158015612a0457600080fd5b505afa158015612a18573d6000803e3d6000fd5b505050506040513d6020811015612a2e57600080fd5b505190508015612c3c57600a54600b546040805163098bf59d60e01b81526001600160a01b038c81166004830181905293811660248301526044820186905260648201939093529051919092169163098bf59d91608480830192600092919082900301818387803b158015612aa257600080fd5b505af1158015612ab6573d6000803e3d6000fd5b5050600b546006546040805163098bf59d60e01b81526001600160a01b038e8116600483018190529381166024830152604482018890526064820193909352905191909216935063098bf59d9250608480830192600092919082900301818387803b158015612b2457600080fd5b505af1158015612b38573d6000803e3d6000fd5b5050600b5460065460408051631e42d69b60e21b81526001600160a01b038e811660048301528d81166024830152928316604482015260648101879052905191909216935063790b5a6c9250608480830192600092919082900301818387803b158015612ba457600080fd5b505af1158015612bb8573d6000803e3d6000fd5b5050600a54600b5460408051631e42d69b60e21b81526001600160a01b038d8116600483018190526024830152928316604482015260648101879052905191909216935063790b5a6c9250608480830192600092919082900301818387803b158015612c2357600080fd5b505af1158015612c37573d6000803e3d6000fd5b505050505b600d5460408051630f713c2360e41b81526001600160a01b038b811660048301528a811660248301529151919092169163f713c23091604480830192600092919082900301818387803b158015612c9257600080fd5b505af1158015612ca6573d6000803e3d6000fd5b5050600e5460408051630f713c2360e41b81526001600160a01b038d811660048301528c81166024830152915191909216935063f713c2309250604480830192600092919082900301818387803b158015612d0057600080fd5b505af1158015612d14573d6000803e3d6000fd5b50505050612d218861479a565b612d2a8761479a565b50506001600055505050505050565b6001546001600160a01b03163314612d86576040805162461bcd60e51b81526020600482015260156024820152600080516020615c55833981519152604482015290519081900360640190fd5b6010805460ff1916911515919091179055565b6004546001600160a01b031681565b6001546001600160a01b03163314612df5576040805162461bcd60e51b81526020600482015260156024820152600080516020615c55833981519152604482015290519081900360640190fd5b600154600160a01b900460ff1615612e4a576040805162461bcd60e51b8152602060048201526013602482015272185b1c9958591e481a5b9a5d1a585b1a5e9959606a1b604482015290519081900360640190fd5b60018060146101000a81548160ff0219169083151502179055508d600260006101000a8154816001600160a01b0302191690836001600160a01b031602179055508c600360006101000a8154816001600160a01b0302191690836001600160a01b031602179055508b600460006101000a8154816001600160a01b0302191690836001600160a01b031602179055508a600560006101000a8154816001600160a01b0302191690836001600160a01b0316021790555089600660006101000a8154816001600160a01b0302191690836001600160a01b0316021790555088600760006101000a8154816001600160a01b0302191690836001600160a01b0316021790555087600860006101000a8154816001600160a01b0302191690836001600160a01b0316021790555086600960006101000a8154816001600160a01b0302191690836001600160a01b0316021790555085600b60006101000a8154816001600160a01b0302191690836001600160a01b0316021790555084600a60006101000a8154816001600160a01b0302191690836001600160a01b0316021790555083600c60006101000a8154816001600160a01b0302191690836001600160a01b0316021790555082600d60006101000a8154816001600160a01b0302191690836001600160a01b0316021790555081600e60006101000a8154816001600160a01b0302191690836001600160a01b0316021790555080601060016101000a8154816001600160a01b0302191690836001600160a01b031602179055505050505050505050505050505050565b60105460ff1681565b6006546001600160a01b031681565b6000600260005414156130f6576040805162461bcd60e51b815260206004820152601f6024820152600080516020615c35833981519152604482015290519081900360640190fd5b600260005583613142576040805162461bcd60e51b81526020600482015260126024820152711a5b9d985b1a590817d9db1c105b5bdd5b9d60721b604482015290519081900360640190fd5b600a54600b546040805163098bf59d60e01b815233600482018190526001600160a01b039384166024830152604482018990526064820181905291519193929092169163098bf59d91608480830192600092919082900301818387803b1580156131ab57600080fd5b505af11580156131bf573d6000803e3d6000fd5b5050600b546006546040805163098bf59d60e01b81526001600160a01b03878116600483018190529381166024830152604482018c90526064820193909352905191909216935063098bf59d9250608480830192600092919082900301818387803b15801561322d57600080fd5b505af1158015613241573d6000803e3d6000fd5b5050600c54600254604080516371d597ad60e01b81526001600160a01b0387811660048301529283166024820152604481018b9052606481018a90523060848201529051600095509190921692506371d597ad9160a48082019260209290919082900301818787803b1580156132b657600080fd5b505af11580156132ca573d6000803e3d6000fd5b505050506040513d60208110156132e057600080fd5b505160025460408051632e1a7d4d60e01b81526004810184905290519293506001600160a01b0390911691632e1a7d4d9160248082019260009290919082900301818387803b15801561333257600080fd5b505af1158015613346573d6000803e3d6000fd5b5061335e925050506001600160a01b038516826146b5565b604080516001600160a01b0384168152602081018890528151600080516020615e71833981519152929181900390910190a1600160005595945050505050565b600a546001600160a01b031681565b6001546001600160a01b031633146133fa576040805162461bcd60e51b81526020600482015260156024820152600080516020615c55833981519152604482015290519081900360640190fd5b6010805482919060ff60a81b1916600160a81b83600281111561341957fe5b021790555050565b6001546001600160a01b0316331461346e576040805162461bcd60e51b81526020600482015260156024820152600080516020615c55833981519152604482015290519081900360640190fd5b600180546001600160a01b0319166001600160a01b0392909216919091179055565b600260005414156134d6576040805162461bcd60e51b815260206004820152601f6024820152600080516020615c35833981519152604482015290519081900360640190fd5b60026000908155600954604080516309f4173d60e11b8152336004820181905260248201819052915191936001600160a01b03909316926313e82e7a926044808401936020939083900390910190829087803b15801561353557600080fd5b505af1158015613549573d6000803e3d6000fd5b505050506040513d602081101561355f57600080fd5b5050600b54604080516309f4173d60e11b81526001600160a01b03848116600483018190526024830152915191909216916313e82e7a9160448083019260209291908290030181600087803b158015611c4857600080fd5b600f5481565b6005546001600160a01b031681565b6011602052600090815260409020546001600160a01b031681565b600b546001600160a01b031681565b6002600054141561363c576040805162461bcd60e51b815260206004820152601f6024820152600080516020615c35833981519152604482015290519081900360640190fd5b6002600055600454610c1f90339081906001600160a01b031684614096565b600260005414156136a1576040805162461bcd60e51b815260206004820152601f6024820152600080516020615c35833981519152604482015290519081900360640190fd5b6002600055600d54604080516370a0823160e01b815233600482015290516001600160a01b03909216916370a0823191602480820192602092909190829003018186803b1580156136f157600080fd5b505afa158015613705573d6000803e3d6000fd5b505050506040513d602081101561371b57600080fd5b50511561375d576040805162461bcd60e51b81526020600482015260186024820152600080516020615e31833981519152604482015290519081900360640190fd5b600e54604080516370a0823160e01b815233600482015290516001600160a01b03909216916370a0823191602480820192602092909190829003018186803b1580156137a857600080fd5b505afa1580156137bc573d6000803e3d6000fd5b505050506040513d60208110156137d257600080fd5b505115613814576040805162461bcd60e51b81526020600482015260186024820152600080516020615e31833981519152604482015290519081900360640190fd5b61381d8161492a565b60105460ff161561397757600954604080516310c1c10360e01b815233600482015290516000926001600160a01b0316916310c1c103916024808301926020929190829003018186803b15801561387357600080fd5b505afa158015613887573d6000803e3d6000fd5b505050506040513d602081101561389d57600080fd5b505160095460408051636eb1769f60e11b81523360048201526001600160a01b0386811660248301529151939450600093919092169163dd62ed3e916044808301926020929190829003018186803b1580156138f857600080fd5b505afa15801561390c573d6000803e3d6000fd5b505050506040513d602081101561392257600080fd5b5051905081811015613974576040805162461bcd60e51b8152602060048201526016602482015275696e73756666696369656e7420616c6c6f77616e636560501b604482015290519081900360640190fd5b50505b33600090815260116020526040812080546001600160a01b0319166001600160a01b03939093169290921790915560019055565b600260005414156139f1576040805162461bcd60e51b815260206004820152601f6024820152600080516020615c35833981519152604482015290519081900360640190fd5b6002600055600354610c1f90339081906001600160a01b031684614096565b60026000541415613a56576040805162461bcd60e51b815260206004820152601f6024820152600080516020615c35833981519152604482015290519081900360640190fd5b6002600055613a64336142b1565b6001600055565b600c546001600160a01b031681565b604080516001600160a01b038416602482015260448082018490528251808303909101815260649091019091526020810180516001600160e01b031663a9059cbb60e01b179052610ba1908490615496565b60008211613b13576040805162461bcd60e51b815260206004820152600f60248201526e1a5b9d985b1a590817d85b5bdd5b9d608a1b604482015290519081900360640190fd5b600754604080516310c1c10360e01b81526001600160a01b038781166004830152915160009392909216916310c1c10391602480820192602092909190829003018186803b158015613b6457600080fd5b505afa158015613b78573d6000803e3d6000fd5b505050506040513d6020811015613b8e57600080fd5b50516009546008546040805163098bf59d60e01b81526001600160a01b038a8116600483018190529381166024830152604482018990526064820193909352905193945091169163098bf59d9160848082019260009290919082900301818387803b158015613bfc57600080fd5b505af1158015613c10573d6000803e3d6000fd5b50506008546007546040805163098bf59d60e01b81526001600160a01b038b8116600483018190529381166024830152604482018a90526064820193909352905191909216935063098bf59d9250608480830192600092919082900301818387803b158015613c7e57600080fd5b505af1158015613c92573d6000803e3d6000fd5b50506007546040805163098bf59d60e01b81526001600160a01b038a8116600483018190528a82166024840152604483018a90526064830152915191909216935063098bf59d9250608480830192600092919082900301818387803b158015613cfa57600080fd5b505af1158015613d0e573d6000803e3d6000fd5b50505050811561403c57600854604080516309f4173d60e11b81526001600160a01b03888116600483018190526024830152915191909216916313e82e7a9160448083019260209291908290030181600087803b158015613d6e57600080fd5b505af1158015613d82573d6000803e3d6000fd5b505050506040513d6020811015613d9857600080fd5b505060095460055460408051637aeceb1f60e11b81526001600160a01b03898116600483015292831660248201529051600093929092169163f5d9d63e91604480820192602092909190829003018186803b158015613df657600080fd5b505afa158015613e0a573d6000803e3d6000fd5b505050506040513d6020811015613e2057600080fd5b505190508015613f33576000613e4083613e3a8488615547565b906155a0565b6009546005546040805163098bf59d60e01b81526001600160a01b038c8116600483018190529381166024830152604482018690526064820193909352905193945091169163098bf59d9160848082019260009290919082900301818387803b158015613eac57600080fd5b505af1158015613ec0573d6000803e3d6000fd5b505060055460408051632770a7eb60e21b81526001600160a01b038c81166004830152602482018790529151919092169350639dc29fac9250604480830192600092919082900301818387803b158015613f1957600080fd5b505af1158015613f2d573d6000803e3d6000fd5b50505050505b600554604080516370a0823160e01b81526001600160a01b038981166004830152915160009392909216916370a0823191602480820192602092909190829003018186803b158015613f8457600080fd5b505afa158015613f98573d6000803e3d6000fd5b505050506040513d6020811015613fae57600080fd5b505190508015614039576000613fc884613e3a8489615547565b60055460408051632770a7eb60e21b81526001600160a01b038c81166004830152602482018590529151939450911691639dc29fac9160448082019260009290919082900301818387803b15801561401f57600080fd5b505af1158015614033573d6000803e3d6000fd5b50505050505b50505b6140458561479a565b604080516001600160a01b0380881682528616602082015280820185905290517fce8eb393006add0768cc6cefb3ca0fc4787015ce1ac86bd800e72a79993103459181900360600190a15050505050565b600081116140dd576040805162461bcd60e51b815260206004820152600f60248201526e1a5b9d985b1a590817d85b5bdd5b9d608a1b604482015290519081900360640190fd5b60075460408051631e42d69b60e21b81526001600160a01b03878116600483015286811660248301528581166044830152606482018590529151919092169163790b5a6c91608480830192600092919082900301818387803b15801561414257600080fd5b505af1158015614156573d6000803e3d6000fd5b505060085460075460408051631e42d69b60e21b81526001600160a01b03898116600483018190526024830152928316604482015260648101879052905191909216935063790b5a6c9250608480830192600092919082900301818387803b1580156141c157600080fd5b505af11580156141d5573d6000803e3d6000fd5b505060095460085460408051631e42d69b60e21b81526001600160a01b03898116600483018190526024830152928316604482015260648101879052905191909216935063790b5a6c9250608480830192600092919082900301818387803b15801561424057600080fd5b505af1158015614254573d6000803e3d6000fd5b505050506142618361479a565b604080516001600160a01b0380861682528416602082015280820183905290517fad0723806aa1e5a8fb826fc9f0c5b589e585a6b60dc768a1b20691c95062d2d69181900360600190a150505050565b6142ba816155df565b6142c381615693565b6142cc8161479a565b50565b600082820183811015614327576040805162461bcd60e51b815260206004820152601b60248201527a536166654d6174683a206164646974696f6e206f766572666c6f7760281b604482015290519081900360640190fd5b90505b92915050565b600854604080516309f4173d60e11b81526001600160a01b03848116600483018190526024830152915191909216916313e82e7a9160448083019260209291908290030181600087803b15801561438657600080fd5b505af115801561439a573d6000803e3d6000fd5b505050506040513d60208110156143b057600080fd5b5050600554604080516370a0823160e01b81526001600160a01b038481166004830152915160009392909216916370a0823191602480820192602092909190829003018186803b15801561440357600080fd5b505afa158015614417573d6000803e3d6000fd5b505050506040513d602081101561442d57600080fd5b505190508061443c57506142cc565b600754604080516310c1c10360e01b81526001600160a01b038581166004830152915160009392909216916310c1c10391602480820192602092909190829003018186803b15801561448d57600080fd5b505afa1580156144a1573d6000803e3d6000fd5b505050506040513d60208110156144b757600080fd5b5051600f549091506000906144d59061271090613e3a908590615547565b60095460055460408051637aeceb1f60e11b81526001600160a01b03898116600483015292831660248201529051939450600093919092169163f5d9d63e916044808301926020929190829003018186803b15801561453357600080fd5b505afa158015614547573d6000803e3d6000fd5b505050506040513d602081101561455d57600080fd5b505190508181141561457257505050506142cc565b81811115614614576000614586828461573a565b6009546005546040805163098bf59d60e01b81526001600160a01b038b8116600483018190529381166024830152604482018690526064820193909352905193945091169163098bf59d9160848082019260009290919082900301818387803b1580156145f257600080fd5b505af1158015614606573d6000803e3d6000fd5b5050505050505050506142cc565b6000614620838361573a565b90508085111561462e578094505b60095460055460408051631e42d69b60e21b81526001600160a01b038a81166004830181905260248301529283166044820152606481018990529051919092169163790b5a6c91608480830192600092919082900301818387803b15801561469557600080fd5b505af11580156146a9573d6000803e3d6000fd5b50505050505050505050565b8047101561470a576040805162461bcd60e51b815260206004820152601d60248201527f416464726573733a20696e73756666696369656e742062616c616e6365000000604482015290519081900360640190fd5b6040516000906001600160a01b0384169083908381818185875af1925050503d8060008114614755576040519150601f19603f3d011682016040523d82523d6000602084013e61475a565b606091505b5050905080610ba15760405162461bcd60e51b815260040180806020018281038252603a815260200180615cc8603a913960400191505060405180910390fd5b6000601054600160a81b900460ff1660028111156147b457fe5b14156147bf576142cc565b6001601054600160a81b900460ff1660028111156147d957fe5b141561486e57600754604080516310c1c10360e01b81526001600160a01b038481166004830152915160009392909216916310c1c10391602480820192602092909190829003018186803b15801561483057600080fd5b505afa158015614844573d6000803e3d6000fd5b505050506040513d602081101561485a57600080fd5b50519050614868828261577c565b506142cc565b6002601054600160a81b900460ff16600281111561488857fe5b14156148df57600954604080516310c1c10360e01b81526001600160a01b038481166004830152915160009392909216916310c1c10391602480820192602092909190829003018186803b15801561483057600080fd5b6040805162461bcd60e51b815260206004820152601b60248201527a756e737570706f7274656420766f74696e67506f7765725479706560281b604482015290519081900360640190fd5b6007546040805163a318021760e01b81526001600160a01b0384811660048301529151919092169163a3180217916024808301926020929190829003018186803b15801561497757600080fd5b505afa15801561498b573d6000803e3d6000fd5b505050506040513d60208110156149a157600080fd5b5051156149df5760405162461bcd60e51b8152600401808060200182810382526029815260200180615c9f6029913960400191505060405180910390fd5b60075460408051633792def360e01b81526001600160a01b03848116600483015291519190921691633792def3916024808301926020929190829003018186803b158015614a2c57600080fd5b505afa158015614a40573d6000803e3d6000fd5b505050506040513d6020811015614a5657600080fd5b505115614a945760405162461bcd60e51b8152600401808060200182810382526026815260200180615c0f6026913960400191505060405180910390fd5b6008546040805163a318021760e01b81526001600160a01b0384811660048301529151919092169163a3180217916024808301926020929190829003018186803b158015614ae157600080fd5b505afa158015614af5573d6000803e3d6000fd5b505050506040513d6020811015614b0b57600080fd5b505115614b495760405162461bcd60e51b8152600401808060200182810382526028815260200180615ebb6028913960400191505060405180910390fd5b60085460408051633792def360e01b81526001600160a01b03848116600483015291519190921691633792def3916024808301926020929190829003018186803b158015614b9657600080fd5b505afa158015614baa573d6000803e3d6000fd5b505050506040513d6020811015614bc057600080fd5b505115614bfe5760405162461bcd60e51b8152600401808060200182810382526025815260200180615f096025913960400191505060405180910390fd5b6009546040805163a318021760e01b81526001600160a01b0384811660048301529151919092169163a3180217916024808301926020929190829003018186803b158015614c4b57600080fd5b505afa158015614c5f573d6000803e3d6000fd5b505050506040513d6020811015614c7557600080fd5b505115614cb35760405162461bcd60e51b8152600401808060200182810382526026815260200180615ee36026913960400191505060405180910390fd5b60095460408051633792def360e01b81526001600160a01b03848116600483015291519190921691633792def3916024808301926020929190829003018186803b158015614d0057600080fd5b505afa158015614d14573d6000803e3d6000fd5b505050506040513d6020811015614d2a57600080fd5b505115614d685760405162461bcd60e51b8152600401808060200182810382526023815260200180615deb6023913960400191505060405180910390fd5b600d5460408051631ccdc0d760e21b81526001600160a01b03848116600483015291519190921691637337035c916024808301926020929190829003018186803b158015614db557600080fd5b505afa158015614dc9573d6000803e3d6000fd5b505050506040513d6020811015614ddf57600080fd5b505115614e1d5760405162461bcd60e51b815260040180806020018281038252602d815260200180615d74602d913960400191505060405180910390fd5b600d5460408051635b8de71560e11b81526001600160a01b0384811660048301529151919092169163b71bce2a916024808301926020929190829003018186803b158015614e6a57600080fd5b505afa158015614e7e573d6000803e3d6000fd5b505050506040513d6020811015614e9457600080fd5b505115614ed25760405162461bcd60e51b815260040180806020018281038252602a815260200180615c75602a913960400191505060405180910390fd5b600a546040805163a318021760e01b81526001600160a01b0384811660048301529151919092169163a3180217916024808301926020929190829003018186803b158015614f1f57600080fd5b505afa158015614f33573d6000803e3d6000fd5b505050506040513d6020811015614f4957600080fd5b505115614f875760405162461bcd60e51b8152600401808060200182810382526029815260200180615dc26029913960400191505060405180910390fd5b600a5460408051633792def360e01b81526001600160a01b03848116600483015291519190921691633792def3916024808301926020929190829003018186803b158015614fd457600080fd5b505afa158015614fe8573d6000803e3d6000fd5b505050506040513d6020811015614ffe57600080fd5b50511561503c5760405162461bcd60e51b8152600401808060200182810382526026815260200180615d286026913960400191505060405180910390fd5b600b546040805163a318021760e01b81526001600160a01b0384811660048301529151919092169163a3180217916024808301926020929190829003018186803b15801561508957600080fd5b505afa15801561509d573d6000803e3d6000fd5b505050506040513d60208110156150b357600080fd5b5051156150f15760405162461bcd60e51b8152600401808060200182810382526026815260200180615d4e6026913960400191505060405180910390fd5b600b5460408051633792def360e01b81526001600160a01b03848116600483015291519190921691633792def3916024808301926020929190829003018186803b15801561513e57600080fd5b505afa158015615152573d6000803e3d6000fd5b505050506040513d602081101561516857600080fd5b5051156151a65760405162461bcd60e51b8152600401808060200182810382526023815260200180615e0e6023913960400191505060405180910390fd5b600e5460408051631ccdc0d760e21b81526001600160a01b03848116600483015291519190921691637337035c916024808301926020929190829003018186803b1580156151f357600080fd5b505afa158015615207573d6000803e3d6000fd5b505050506040513d602081101561521d57600080fd5b50511561525b5760405162461bcd60e51b815260040180806020018281038252602d815260200180615d74602d913960400191505060405180910390fd5b600e5460408051635b8de71560e11b81526001600160a01b0384811660048301529151919092169163b71bce2a916024808301926020929190829003018186803b1580156152a857600080fd5b505afa1580156152bc573d6000803e3d6000fd5b505050506040513d60208110156152d257600080fd5b5051156153105760405162461bcd60e51b815260040180806020018281038252602a815260200180615c75602a913960400191505060405180910390fd5b600d54604080516370a0823160e01b81526001600160a01b038481166004830152915191909216916370a08231916024808301926020929190829003018186803b15801561535d57600080fd5b505afa158015615371573d6000803e3d6000fd5b505050506040513d602081101561538757600080fd5b5051156153d3576040805162461bcd60e51b81526020600482015260156024820152740676d785665737465722e62616c616e6365203e203605c1b604482015290519081900360640190fd5b600e54604080516370a0823160e01b81526001600160a01b038481166004830152915191909216916370a08231916024808301926020929190829003018186803b15801561542057600080fd5b505afa158015615434573d6000803e3d6000fd5b505050506040513d602081101561544a57600080fd5b5051156142cc576040805162461bcd60e51b81526020600482015260156024820152740676c705665737465722e62616c616e6365203e203605c1b604482015290519081900360640190fd5b60606154eb826040518060400160405280602081526020017f5361666545524332303a206c6f772d6c6576656c2063616c6c206661696c6564815250856001600160a01b03166159319092919063ffffffff16565b805190915015610ba15780806020019051602081101561550a57600080fd5b5051610ba15760405162461bcd60e51b815260040180806020018281038252602a815260200180615e91602a913960400191505060405180910390fd5b6000826155565750600061432a565b8282028284828161556357fe5b04146143275760405162461bcd60e51b8152600401808060200182810382526021815260200180615da16021913960400191505060405180910390fd5b600061432783836040518060400160405280601a815260200179536166654d6174683a206469766973696f6e206279207a65726f60301b81525061594a565b600754604080516309f4173d60e11b81526001600160a01b03848116600483018190526024830152915160009392909216916313e82e7a9160448082019260209290919082900301818787803b15801561563857600080fd5b505af115801561564c573d6000803e3d6000fd5b505050506040513d602081101561566257600080fd5b5051905080156156865760045461568690839081906001600160a01b031684614096565b61568f82614330565b5050565b600a54604080516309f4173d60e11b81526001600160a01b03848116600483018190526024830152915160009392909216916313e82e7a9160448082019260209290919082900301818787803b1580156156ec57600080fd5b505af1158015615700573d6000803e3d6000fd5b505050506040513d602081101561571657600080fd5b50519050801561568f5760045461568f90839081906001600160a01b031684614096565b600061432783836040518060400160405280601e81526020017f536166654d6174683a207375627472616374696f6e206f766572666c6f7700008152506159ec565b6000601060019054906101000a90046001600160a01b03166001600160a01b03166370a08231846040518263ffffffff1660e01b815260040180826001600160a01b0316815260200191505060206040518083038186803b1580156157e057600080fd5b505afa1580156157f4573d6000803e3d6000fd5b505050506040513d602081101561580a57600080fd5b505190508181141561581c575061568f565b818111156158ab576000615830828461573a565b60105460408051632770a7eb60e21b81526001600160a01b0388811660048301526024820185905291519394506101009092041691639dc29fac9160448082019260009290919082900301818387803b15801561588c57600080fd5b505af11580156158a0573d6000803e3d6000fd5b50505050505061568f565b60006158b7838361573a565b601054604080516340c10f1960e01b81526001600160a01b03888116600483015260248201859052915193945061010090920416916340c10f199160448082019260009290919082900301818387803b15801561591357600080fd5b505af1158015615927573d6000803e3d6000fd5b5050505050505050565b60606159408484600085615a46565b90505b9392505050565b600081836159d65760405162461bcd60e51b81526004018080602001828103825283818151815260200191508051906020019080838360005b8381101561599b578181015183820152602001615983565b50505050905090810190601f1680156159c85780820380516001836020036101000a031916815260200191505b509250505060405180910390fd5b5060008385816159e257fe5b0495945050505050565b60008184841115615a3e5760405162461bcd60e51b815260206004820181815283516024840152835190928392604490910191908501908083836000831561599b578181015183820152602001615983565b505050900390565b606082471015615a875760405162461bcd60e51b8152600401808060200182810382526026815260200180615d026026913960400191505060405180910390fd5b615a9085615ba2565b615ae1576040805162461bcd60e51b815260206004820152601d60248201527f416464726573733a2063616c6c20746f206e6f6e2d636f6e7472616374000000604482015290519081900360640190fd5b60006060866001600160a01b031685876040518082805190602001908083835b60208310615b205780518252601f199092019160209182019101615b01565b6001836020036101000a03801982511681845116808217855250505050505090500191505060006040518083038185875af1925050503d8060008114615b82576040519150601f19603f3d011682016040523d82523d6000602084013e615b87565b606091505b5091509150615b97828286615ba8565b979650505050505050565b3b151590565b60608315615bb7575081615943565b825115615bc75782518084602001fd5b60405162461bcd60e51b815260206004820181815284516024840152845185939192839260440191908501908083836000831561599b57818101518382015260200161598356fe7374616b6564476d78547261636b65722e63756d756c617469766552657761726473203e20305265656e7472616e637947756172643a207265656e7472616e742063616c6c00476f7665726e61626c653a20666f7262696464656e0000000000000000000000676d785665737465722e7472616e7366657272656443756d756c617469766552657761726473203e20307374616b6564476d78547261636b65722e617665726167655374616b6564416d6f756e7473203e2030416464726573733a20756e61626c6520746f2073656e642076616c75652c20726563697069656e74206d61792068617665207265766572746564416464726573733a20696e73756666696369656e742062616c616e636520666f722063616c6c7374616b6564476c70547261636b65722e63756d756c617469766552657761726473203e2030666565476c70547261636b65722e617665726167655374616b6564416d6f756e7473203e2030676d785665737465722e7472616e73666572726564417665726167655374616b6564416d6f756e7473203e2030536166654d6174683a206d756c7469706c69636174696f6e206f766572666c6f777374616b6564476c70547261636b65722e617665726167655374616b6564416d6f756e7473203e2030666565476d78547261636b65722e63756d756c617469766552657761726473203e2030666565476c70547261636b65722e63756d756c617469766552657761726473203e203073656e646572206861732076657374656420746f6b656e730000000000000000a4725d47fa458d9222498e4d63f34527cf7318c1506f89d9092b35fdbcb64f3a1cb6202519b6b6c72ba5ed11e2c3f53af3cea010f96bfc705584e53e75cf034c5361666545524332303a204552433230206f7065726174696f6e20646964206e6f742073756363656564626f6e7573476d78547261636b65722e617665726167655374616b6564416d6f756e7473203e2030666565476d78547261636b65722e617665726167655374616b6564416d6f756e7473203e2030626f6e7573476d78547261636b65722e63756d756c617469766552657761726473203e2030a2646970667358221220a1be32aa23e2811beec9dbcf73a9d33613315834e2de3eba5308f79ee96f4bfa64736f6c634300060c0033",
  "linkReferences": {},
  "deployedLinkReferences": {}
}