{
  "_format": "hh-sol-artifact-1",
  "contractName": "MockPyth",
  "sourceName": "contracts/mock/MockPyth.sol",
  "abi": [
    {
      "inputs": [
        {
          "internalType": "bytes32",
          "name": "",
          "type": "bytes32"
        }
      ],
      "name": "exponents",
      "outputs": [
        {
          "internalType": "int32",
          "name": "",
          "type": "int32"
        }
      ],
      "stateMutability": "view",
      "type": "function"
    },
    {
      "inputs": [
        {
          "internalType": "bytes32",
          "name": "id",
          "type": "bytes32"
        }
      ],
      "name": "getPrice",
      "outputs": [
        {
          "components": [
            {
              "internalType": "int64",
              "name": "price",
              "type": "int64"
            },
            {
              "internalType": "uint64",
              "name": "conf",
              "type": "uint64"
            },
            {
              "internalType": "int32",
              "name": "expo",
              "type": "int32"
            },
            {
              "internalType": "uint256",
              "name": "publishTime",
              "type": "uint256"
            }
          ],
          "internalType": "struct PythStructs.Price",
          "name": "price",
          "type": "tuple"
        }
      ],
      "stateMutability": "view",
      "type": "function"
    },
    {
      "inputs": [
        {
          "internalType": "bytes[]",
          "name": "",
          "type": "bytes[]"
        }
      ],
      "name": "getUpdateFee",
      "outputs": [
        {
          "internalType": "uint256",
          "name": "feeAmount",
          "type": "uint256"
        }
      ],
      "stateMutability": "pure",
      "type": "function"
    },
    {
      "inputs": [
        {
          "internalType": "bytes32",
          "name": "",
          "type": "bytes32"
        }
      ],
      "name": "prices",
      "outputs": [
        {
          "internalType": "int64",
          "name": "",
          "type": "int64"
        }
      ],
      "stateMutability": "view",
      "type": "function"
    },
    {
      "inputs": [
        {
          "internalType": "bytes32",
          "name": "",
          "type": "bytes32"
        }
      ],
      "name": "publishTimes",
      "outputs": [
        {
          "internalType": "uint256",
          "name": "",
          "type": "uint256"
        }
      ],
      "stateMutability": "view",
      "type": "function"
    },
    {
      "inputs": [
        {
          "internalType": "bytes32",
          "name": "id",
          "type": "bytes32"
        },
        {
          "internalType": "int64",
          "name": "price",
          "type": "int64"
        },
        {
          "internalType": "int32",
          "name": "expo",
          "type": "int32"
        },
        {
          "internalType": "uint256",
          "name": "publishTime",
          "type": "uint256"
        }
      ],
      "name": "setPrice",
      "outputs": [],
      "stateMutability": "nonpayable",
      "type": "function"
    },
    {
      "inputs": [
        {
          "internalType": "bytes[]",
          "name": "",
          "type": "bytes[]"
        }
      ],
      "name": "updatePriceFeeds",
      "outputs": [],
      "stateMutability": "payable",
      "type": "function"
    }
  ],
  "bytecode": "0x608060405234801561001057600080fd5b50610412806100206000396000f3fe6080604052600436106100605760003560e01c80632413d3781461006557806331d98b3f1461008757806360846bc6146100bd578063be0b0a6c146100ea578063d47eed4514610117578063ef9e5e2814610144578063f8c7a5ce14610157575b600080fd5b34801561007157600080fd5b5061008561008036600461032b565b610177565b005b34801561009357600080fd5b506100a76100a2366004610313565b6101d9565b6040516100b49190610399565b60405180910390f35b3480156100c957600080fd5b506100dd6100d8366004610313565b610232565b6040516100b4919061038b565b3480156100f657600080fd5b5061010a610105366004610313565b610247565b6040516100b4919061037d565b34801561012357600080fd5b506101376101323660046102a5565b61025c565b6040516100b491906103d3565b6100856101523660046102a5565b610268565b34801561016357600080fd5b50610137610172366004610313565b61026c565b600093845260208481526040808620805460079690960b6001600160401b03166001600160401b03199096169590951790945560018152838520805460039490940b63ffffffff1663ffffffff19909416939093179092556002909152912055565b6101e161027e565b50604080516080810182526000838152602081815283822054600790810b900b83528083018290528482526001815283822054600390810b900b838501529381526002909352912054606082015290565b60006020819052908152604090205460070b81565b60016020526000908152604090205460030b81565b64e8d4a5100092915050565b5050565b60026020526000908152604090205481565b60408051608081018252600080825260208201819052918101829052606081019190915290565b600080602083850312156102b7578182fd5b82356001600160401b03808211156102cd578384fd5b818501915085601f8301126102e0578384fd5b8135818111156102ee578485fd5b8660208083028501011115610301578485fd5b60209290920196919550909350505050565b600060208284031215610324578081fd5b5035919050565b60008060008060808587031215610340578182fd5b8435935060208501358060070b8114610357578283fd5b92506040850135600381900b811461036d578283fd5b9396929550929360600135925050565b60039190910b815260200190565b60079190910b815260200190565b815160070b81526020808301516001600160401b03169082015260408083015160030b908201526060918201519181019190915260800190565b9081526020019056fea26469706673582212203d875df1e64d2ef310a20cc98f7b062e53064b86339ec663ad6a77feaaf3de4764736f6c634300060c0033",
  "linkReferences": {},
  "deployedLinkReferences": {}
}