{
  "_format": "hh-sol-artifact-1",
  "contractName": "StabilizeCaller",
  "sourceName": "contracts/migrators/StabilizeCaller.sol",
  "abi": [
    {
      "inputs": [],
      "stateMutability": "nonpayable",
      "type": "constructor"
    },
    {
      "inputs": [],
      "name": "completeMove",
      "outputs": [],
      "stateMutability": "nonpayable",
      "type": "function"
    },
    {
      "inputs": [],
      "name": "gov",
      "outputs": [
        {
          "internalType": "address",
          "name": "",
          "type": "address"
        }
      ],
      "stateMutability": "view",
      "type": "function"
    },
    {
      "inputs": [
        {
          "internalType": "address",
          "name": "_parent",
          "type": "address"
        }
      ],
      "name": "initialize",
      "outputs": [],
      "stateMutability": "nonpayable",
      "type": "function"
    },
    {
      "inputs": [],
      "name": "isInitialized",
      "outputs": [
        {
          "internalType": "bool",
          "name": "",
          "type": "bool"
        }
      ],
      "stateMutability": "view",
      "type": "function"
    },
    {
      "inputs": [],
      "name": "parent",
      "outputs": [
        {
          "internalType": "address",
          "name": "",
          "type": "address"
        }
      ],
      "stateMutability": "view",
      "type": "function"
    }
  ],
  "bytecode": "0x608060405234801561001057600080fd5b50600180546001600160a01b031916331790556102d5806100326000396000f3fe608060405234801561001057600080fd5b50600436106100575760003560e01c806312d43a511461005c578063392e53cd1461008057806360f96a8f1461009c578063822a7c2f146100a4578063c4d66de8146100ae575b600080fd5b6100646100d4565b604080516001600160a01b039092168252519081900360200190f35b6100886100e3565b604080519115158252519081900360200190f35b6100646100ec565b6100ac610100565b005b6100ac600480360360208110156100c457600080fd5b50356001600160a01b03166101d4565b6001546001600160a01b031681565b60005460ff1681565b60005461010090046001600160a01b031681565b60005461010090046001600160a01b03163314610150576040805162461bcd60e51b81526020600482015260096024820152683337b93134b23232b760b91b604482015290519081900360640190fd5b604080516335d2fb7560e11b8152730cb95613035913a4d957bd78328c71ce5e83f0296004820152905173cd28c22d3c270477b841d1e6868b334defa4f0c7918291636ba5f6ea9160248082019260009290919082900301818387803b1580156101b957600080fd5b505af11580156101cd573d6000803e3d6000fd5b5050505050565b6001546001600160a01b0316331461021f576040805162461bcd60e51b81526020600482015260096024820152683337b93134b23232b760b91b604482015290519081900360640190fd5b60005460ff161561026d576040805162461bcd60e51b8152602060048201526013602482015272185b1c9958591e481a5b9a5d1a585b1a5e9959606a1b604482015290519081900360640190fd5b600080546001600160a01b0390921661010002610100600160a81b031960ff199093166001179290921691909117905556fea2646970667358221220484aebe4ff50d7d62c2ffbf2a4a6242db09e5db8ffb1216264c088486404bb6c64736f6c634300060c0033",
  "linkReferences": {},
  "deployedLinkReferences": {}
}