{
  "_format": "hh-sol-artifact-1",
  "contractName": "FastPriceFeed",
  "sourceName": "contracts/oracle/FastPriceFeed.sol",
  "abi": [
    {
      "inputs": [
        {
          "internalType": "address",
          "name": "_pyth",
          "type": "address"
        },
        {
          "internalType": "uint256",
          "name": "_priceDuration",
          "type": "uint256"
        },
        {
          "internalType": "uint256",
          "name": "_maxPriceUpdateDelay",
          "type": "uint256"
        },
        {
          "internalType": "uint256",
          "name": "_minBlockInterval",
          "type": "uint256"
        },
        {
          "internalType": "uint256",
          "name": "_maxDeviationBasisPoints",
          "type": "uint256"
        },
        {
          "internalType": "address",
          "name": "_vaultPriceFeed",
          "type": "address"
        },
        {
          "internalType": "address",
          "name": "_fastPriceEvents",
          "type": "address"
        },
        {
          "internalType": "address",
          "name": "_tokenManager",
          "type": "address"
        }
      ],
      "stateMutability": "nonpayable",
      "type": "constructor"
    },
    {
      "anonymous": false,
      "inputs": [
        {
          "indexed": false,
          "internalType": "address",
          "name": "signer",
          "type": "address"
        }
      ],
      "name": "DisableFastPrice",
      "type": "event"
    },
    {
      "anonymous": false,
      "inputs": [
        {
          "indexed": false,
          "internalType": "address",
          "name": "signer",
          "type": "address"
        }
      ],
      "name": "EnableFastPrice",
      "type": "event"
    },
    {
      "anonymous": false,
      "inputs": [
        {
          "indexed": false,
          "internalType": "address",
          "name": "token",
          "type": "address"
        },
        {
          "indexed": false,
          "internalType": "uint256",
          "name": "refPrice",
          "type": "uint256"
        },
        {
          "indexed": false,
          "internalType": "uint256",
          "name": "fastPrice",
          "type": "uint256"
        },
        {
          "indexed": false,
          "internalType": "uint256",
          "name": "cumulativeRefDelta",
          "type": "uint256"
        },
        {
          "indexed": false,
          "internalType": "uint256",
          "name": "cumulativeFastDelta",
          "type": "uint256"
        }
      ],
      "name": "MaxCumulativeDeltaDiffExceeded",
      "type": "event"
    },
    {
      "anonymous": false,
      "inputs": [
        {
          "indexed": false,
          "internalType": "address",
          "name": "token",
          "type": "address"
        },
        {
          "indexed": false,
          "internalType": "uint256",
          "name": "refPrice",
          "type": "uint256"
        },
        {
          "indexed": false,
          "internalType": "uint256",
          "name": "fastPrice",
          "type": "uint256"
        },
        {
          "indexed": false,
          "internalType": "uint256",
          "name": "cumulativeRefDelta",
          "type": "uint256"
        },
        {
          "indexed": false,
          "internalType": "uint256",
          "name": "cumulativeFastDelta",
          "type": "uint256"
        }
      ],
      "name": "PriceData",
      "type": "event"
    },
    {
      "inputs": [],
      "name": "BASIS_POINTS_DIVISOR",
      "outputs": [
        {
          "internalType": "uint256",
          "name": "",
          "type": "uint256"
        }
      ],
      "stateMutability": "view",
      "type": "function"
    },
    {
      "inputs": [],
      "name": "CUMULATIVE_DELTA_PRECISION",
      "outputs": [
        {
          "internalType": "uint256",
          "name": "",
          "type": "uint256"
        }
      ],
      "stateMutability": "view",
      "type": "function"
    },
    {
      "inputs": [],
      "name": "MAX_CUMULATIVE_FAST_DELTA",
      "outputs": [
        {
          "internalType": "uint256",
          "name": "",
          "type": "uint256"
        }
      ],
      "stateMutability": "view",
      "type": "function"
    },
    {
      "inputs": [],
      "name": "MAX_CUMULATIVE_REF_DELTA",
      "outputs": [
        {
          "internalType": "uint256",
          "name": "",
          "type": "uint256"
        }
      ],
      "stateMutability": "view",
      "type": "function"
    },
    {
      "inputs": [],
      "name": "MAX_PRICE_DURATION",
      "outputs": [
        {
          "internalType": "uint256",
          "name": "",
          "type": "uint256"
        }
      ],
      "stateMutability": "view",
      "type": "function"
    },
    {
      "inputs": [],
      "name": "MAX_REF_PRICE",
      "outputs": [
        {
          "internalType": "uint256",
          "name": "",
          "type": "uint256"
        }
      ],
      "stateMutability": "view",
      "type": "function"
    },
    {
      "inputs": [],
      "name": "PRICE_PRECISION",
      "outputs": [
        {
          "internalType": "uint256",
          "name": "",
          "type": "uint256"
        }
      ],
      "stateMutability": "view",
      "type": "function"
    },
    {
      "inputs": [],
      "name": "disableFastPrice",
      "outputs": [],
      "stateMutability": "nonpayable",
      "type": "function"
    },
    {
      "inputs": [],
      "name": "disableFastPriceVoteCount",
      "outputs": [
        {
          "internalType": "uint256",
          "name": "",
          "type": "uint256"
        }
      ],
      "stateMutability": "view",
      "type": "function"
    },
    {
      "inputs": [
        {
          "internalType": "address",
          "name": "",
          "type": "address"
        }
      ],
      "name": "disableFastPriceVotes",
      "outputs": [
        {
          "internalType": "bool",
          "name": "",
          "type": "bool"
        }
      ],
      "stateMutability": "view",
      "type": "function"
    },
    {
      "inputs": [],
      "name": "enableFastPrice",
      "outputs": [],
      "stateMutability": "nonpayable",
      "type": "function"
    },
    {
      "inputs": [],
      "name": "fastPriceEvents",
      "outputs": [
        {
          "internalType": "address",
          "name": "",
          "type": "address"
        }
      ],
      "stateMutability": "view",
      "type": "function"
    },
    {
      "inputs": [
        {
          "internalType": "address",
          "name": "_token",
          "type": "address"
        }
      ],
      "name": "favorFastPrice",
      "outputs": [
        {
          "internalType": "bool",
          "name": "",
          "type": "bool"
        }
      ],
      "stateMutability": "view",
      "type": "function"
    },
    {
      "inputs": [
        {
          "internalType": "address",
          "name": "_token",
          "type": "address"
        },
        {
          "internalType": "uint256",
          "name": "_refPrice",
          "type": "uint256"
        },
        {
          "internalType": "bool",
          "name": "_maximise",
          "type": "bool"
        }
      ],
      "name": "getPrice",
      "outputs": [
        {
          "internalType": "uint256",
          "name": "",
          "type": "uint256"
        }
      ],
      "stateMutability": "view",
      "type": "function"
    },
    {
      "inputs": [
        {
          "internalType": "address",
          "name": "_token",
          "type": "address"
        }
      ],
      "name": "getPriceData",
      "outputs": [
        {
          "internalType": "uint256",
          "name": "",
          "type": "uint256"
        },
        {
          "internalType": "uint256",
          "name": "",
          "type": "uint256"
        },
        {
          "internalType": "uint256",
          "name": "",
          "type": "uint256"
        },
        {
          "internalType": "uint256",
          "name": "",
          "type": "uint256"
        }
      ],
      "stateMutability": "view",
      "type": "function"
    },
    {
      "inputs": [],
      "name": "gov",
      "outputs": [
        {
          "internalType": "address",
          "name": "",
          "type": "address"
        }
      ],
      "stateMutability": "view",
      "type": "function"
    },
    {
      "inputs": [
        {
          "internalType": "uint256",
          "name": "_minAuthorizations",
          "type": "uint256"
        },
        {
          "internalType": "address[]",
          "name": "_signers",
          "type": "address[]"
        },
        {
          "internalType": "address[]",
          "name": "_updaters",
          "type": "address[]"
        },
        {
          "internalType": "address[]",
          "name": "_tokens",
          "type": "address[]"
        },
        {
          "internalType": "bytes32[]",
          "name": "_priceFeedIds",
          "type": "bytes32[]"
        }
      ],
      "name": "initialize",
      "outputs": [],
      "stateMutability": "nonpayable",
      "type": "function"
    },
    {
      "inputs": [],
      "name": "isInitialized",
      "outputs": [
        {
          "internalType": "bool",
          "name": "",
          "type": "bool"
        }
      ],
      "stateMutability": "view",
      "type": "function"
    },
    {
      "inputs": [
        {
          "internalType": "address",
          "name": "",
          "type": "address"
        }
      ],
      "name": "isSigner",
      "outputs": [
        {
          "internalType": "bool",
          "name": "",
          "type": "bool"
        }
      ],
      "stateMutability": "view",
      "type": "function"
    },
    {
      "inputs": [],
      "name": "isSpreadEnabled",
      "outputs": [
        {
          "internalType": "bool",
          "name": "",
          "type": "bool"
        }
      ],
      "stateMutability": "view",
      "type": "function"
    },
    {
      "inputs": [
        {
          "internalType": "address",
          "name": "",
          "type": "address"
        }
      ],
      "name": "isUpdater",
      "outputs": [
        {
          "internalType": "bool",
          "name": "",
          "type": "bool"
        }
      ],
      "stateMutability": "view",
      "type": "function"
    },
    {
      "inputs": [],
      "name": "lastUpdatedAt",
      "outputs": [
        {
          "internalType": "uint256",
          "name": "",
          "type": "uint256"
        }
      ],
      "stateMutability": "view",
      "type": "function"
    },
    {
      "inputs": [],
      "name": "lastUpdatedBlock",
      "outputs": [
        {
          "internalType": "uint256",
          "name": "",
          "type": "uint256"
        }
      ],
      "stateMutability": "view",
      "type": "function"
    },
    {
      "inputs": [
        {
          "internalType": "address",
          "name": "",
          "type": "address"
        }
      ],
      "name": "maxCumulativeDeltaDiffs",
      "outputs": [
        {
          "internalType": "uint256",
          "name": "",
          "type": "uint256"
        }
      ],
      "stateMutability": "view",
      "type": "function"
    },
    {
      "inputs": [],
      "name": "maxDeviationBasisPoints",
      "outputs": [
        {
          "internalType": "uint256",
          "name": "",
          "type": "uint256"
        }
      ],
      "stateMutability": "view",
      "type": "function"
    },
    {
      "inputs": [],
      "name": "maxPriceUpdateDelay",
      "outputs": [
        {
          "internalType": "uint256",
          "name": "",
          "type": "uint256"
        }
      ],
      "stateMutability": "view",
      "type": "function"
    },
    {
      "inputs": [],
      "name": "minAuthorizations",
      "outputs": [
        {
          "internalType": "uint256",
          "name": "",
          "type": "uint256"
        }
      ],
      "stateMutability": "view",
      "type": "function"
    },
    {
      "inputs": [],
      "name": "minBlockInterval",
      "outputs": [
        {
          "internalType": "uint256",
          "name": "",
          "type": "uint256"
        }
      ],
      "stateMutability": "view",
      "type": "function"
    },
    {
      "inputs": [
        {
          "internalType": "address",
          "name": "",
          "type": "address"
        }
      ],
      "name": "priceData",
      "outputs": [
        {
          "internalType": "uint160",
          "name": "refPrice",
          "type": "uint160"
        },
        {
          "internalType": "uint32",
          "name": "refTime",
          "type": "uint32"
        },
        {
          "internalType": "uint32",
          "name": "cumulativeRefDelta",
          "type": "uint32"
        },
        {
          "internalType": "uint32",
          "name": "cumulativeFastDelta",
          "type": "uint32"
        }
      ],
      "stateMutability": "view",
      "type": "function"
    },
    {
      "inputs": [],
      "name": "priceDataInterval",
      "outputs": [
        {
          "internalType": "uint256",
          "name": "",
          "type": "uint256"
        }
      ],
      "stateMutability": "view",
      "type": "function"
    },
    {
      "inputs": [],
      "name": "priceDuration",
      "outputs": [
        {
          "internalType": "uint256",
          "name": "",
          "type": "uint256"
        }
      ],
      "stateMutability": "view",
      "type": "function"
    },
    {
      "inputs": [
        {
          "internalType": "address",
          "name": "",
          "type": "address"
        }
      ],
      "name": "priceFeedIds",
      "outputs": [
        {
          "internalType": "bytes32",
          "name": "",
          "type": "bytes32"
        }
      ],
      "stateMutability": "view",
      "type": "function"
    },
    {
      "inputs": [
        {
          "internalType": "address",
          "name": "",
          "type": "address"
        }
      ],
      "name": "prices",
      "outputs": [
        {
          "internalType": "uint256",
          "name": "",
          "type": "uint256"
        }
      ],
      "stateMutability": "view",
      "type": "function"
    },
    {
      "inputs": [],
      "name": "pyth",
      "outputs": [
        {
          "internalType": "contract IPyth",
          "name": "",
          "type": "address"
        }
      ],
      "stateMutability": "view",
      "type": "function"
    },
    {
      "inputs": [
        {
          "internalType": "address",
          "name": "_gov",
          "type": "address"
        }
      ],
      "name": "setGov",
      "outputs": [],
      "stateMutability": "nonpayable",
      "type": "function"
    },
    {
      "inputs": [
        {
          "internalType": "bool",
          "name": "_isSpreadEnabled",
          "type": "bool"
        }
      ],
      "name": "setIsSpreadEnabled",
      "outputs": [],
      "stateMutability": "nonpayable",
      "type": "function"
    },
    {
      "inputs": [
        {
          "internalType": "uint256",
          "name": "_lastUpdatedAt",
          "type": "uint256"
        }
      ],
      "name": "setLastUpdatedAt",
      "outputs": [],
      "stateMutability": "nonpayable",
      "type": "function"
    },
    {
      "inputs": [
        {
          "internalType": "address[]",
          "name": "_tokens",
          "type": "address[]"
        },
        {
          "internalType": "uint256[]",
          "name": "_maxCumulativeDeltaDiffs",
          "type": "uint256[]"
        }
      ],
      "name": "setMaxCumulativeDeltaDiffs",
      "outputs": [],
      "stateMutability": "nonpayable",
      "type": "function"
    },
    {
      "inputs": [
        {
          "internalType": "uint256",
          "name": "_maxDeviationBasisPoints",
          "type": "uint256"
        }
      ],
      "name": "setMaxDeviationBasisPoints",
      "outputs": [],
      "stateMutability": "nonpayable",
      "type": "function"
    },
    {
      "inputs": [
        {
          "internalType": "uint256",
          "name": "_maxPriceUpdateDelay",
          "type": "uint256"
        }
      ],
      "name": "setMaxPriceUpdateDelay",
      "outputs": [],
      "stateMutability": "nonpayable",
      "type": "function"
    },
    {
      "inputs": [
        {
          "internalType": "uint256",
          "name": "_minAuthorizations",
          "type": "uint256"
        }
      ],
      "name": "setMinAuthorizations",
      "outputs": [],
      "stateMutability": "nonpayable",
      "type": "function"
    },
    {
      "inputs": [
        {
          "internalType": "uint256",
          "name": "_minBlockInterval",
          "type": "uint256"
        }
      ],
      "name": "setMinBlockInterval",
      "outputs": [],
      "stateMutability": "nonpayable",
      "type": "function"
    },
    {
      "inputs": [
        {
          "internalType": "uint256",
          "name": "_priceDataInterval",
          "type": "uint256"
        }
      ],
      "name": "setPriceDataInterval",
      "outputs": [],
      "stateMutability": "nonpayable",
      "type": "function"
    },
    {
      "inputs": [
        {
          "internalType": "uint256",
          "name": "_priceDuration",
          "type": "uint256"
        }
      ],
      "name": "setPriceDuration",
      "outputs": [],
      "stateMutability": "nonpayable",
      "type": "function"
    },
    {
      "inputs": [
        {
          "internalType": "bytes[]",
          "name": "priceUpdateData",
          "type": "bytes[]"
        }
      ],
      "name": "setPricesWithData",
      "outputs": [],
      "stateMutability": "payable",
      "type": "function"
    },
    {
      "inputs": [
        {
          "internalType": "address",
          "name": "_positionRouter",
          "type": "address"
        },
        {
          "internalType": "bytes[]",
          "name": "priceUpdateData",
          "type": "bytes[]"
        },
        {
          "internalType": "uint256",
          "name": "_endIndexForIncreasePositions",
          "type": "uint256"
        },
        {
          "internalType": "uint256",
          "name": "_endIndexForDecreasePositions",
          "type": "uint256"
        },
        {
          "internalType": "uint256",
          "name": "_maxIncreasePositions",
          "type": "uint256"
        },
        {
          "internalType": "uint256",
          "name": "_maxDecreasePositions",
          "type": "uint256"
        }
      ],
      "name": "setPricesWithDataAndExecute",
      "outputs": [],
      "stateMutability": "payable",
      "type": "function"
    },
    {
      "inputs": [
        {
          "internalType": "address",
          "name": "_account",
          "type": "address"
        },
        {
          "internalType": "bool",
          "name": "_isActive",
          "type": "bool"
        }
      ],
      "name": "setSigner",
      "outputs": [],
      "stateMutability": "nonpayable",
      "type": "function"
    },
    {
      "inputs": [
        {
          "internalType": "uint256",
          "name": "_spreadBasisPointsIfChainError",
          "type": "uint256"
        }
      ],
      "name": "setSpreadBasisPointsIfChainError",
      "outputs": [],
      "stateMutability": "nonpayable",
      "type": "function"
    },
    {
      "inputs": [
        {
          "internalType": "uint256",
          "name": "_spreadBasisPointsIfInactive",
          "type": "uint256"
        }
      ],
      "name": "setSpreadBasisPointsIfInactive",
      "outputs": [],
      "stateMutability": "nonpayable",
      "type": "function"
    },
    {
      "inputs": [
        {
          "internalType": "address",
          "name": "_tokenManager",
          "type": "address"
        }
      ],
      "name": "setTokenManager",
      "outputs": [],
      "stateMutability": "nonpayable",
      "type": "function"
    },
    {
      "inputs": [
        {
          "internalType": "address",
          "name": "_account",
          "type": "address"
        },
        {
          "internalType": "bool",
          "name": "_isActive",
          "type": "bool"
        }
      ],
      "name": "setUpdater",
      "outputs": [],
      "stateMutability": "nonpayable",
      "type": "function"
    },
    {
      "inputs": [],
      "name": "spreadBasisPointsIfChainError",
      "outputs": [
        {
          "internalType": "uint256",
          "name": "",
          "type": "uint256"
        }
      ],
      "stateMutability": "view",
      "type": "function"
    },
    {
      "inputs": [],
      "name": "spreadBasisPointsIfInactive",
      "outputs": [
        {
          "internalType": "uint256",
          "name": "",
          "type": "uint256"
        }
      ],
      "stateMutability": "view",
      "type": "function"
    },
    {
      "inputs": [],
      "name": "tokenManager",
      "outputs": [
        {
          "internalType": "address",
          "name": "",
          "type": "address"
        }
      ],
      "stateMutability": "view",
      "type": "function"
    },
    {
      "inputs": [
        {
          "internalType": "uint256",
          "name": "",
          "type": "uint256"
        }
      ],
      "name": "tokens",
      "outputs": [
        {
          "internalType": "address",
          "name": "",
          "type": "address"
        }
      ],
      "stateMutability": "view",
      "type": "function"
    },
    {
      "inputs": [],
      "name": "vaultPriceFeed",
      "outputs": [
        {
          "internalType": "address",
          "name": "",
          "type": "address"
        }
      ],
      "stateMutability": "view",
      "type": "function"
    }
  ],
  "bytecode": "0x60e06040526000805460ff60a81b19168155600c553480156200002157600080fd5b5060405162002cd838038062002cd8833981016040819052620000449162000102565b600080546001600160a01b03191633179055610708871115620000845760405162461bcd60e51b81526004016200007b9062000189565b60405180910390fd5b606097881b6001600160601b0319908116608052600497909755600595909555600893909355600a9190915590841b831660c05290921b1660a052600180546001600160a01b0319166001600160a01b03909216919091179055620001ce565b80516001600160a01b0381168114620000fc57600080fd5b92915050565b600080600080600080600080610100898b0312156200011f578384fd5b6200012b8a8a620000e4565b975060208901519650604089015195506060890151945060808901519350620001588a60a08b01620000e4565b9250620001698a60c08b01620000e4565b91506200017a8a60e08b01620000e4565b90509295985092959890939650565b60208082526025908201527f466173745072696365466565643a20696e76616c6964205f707269636544757260408201526430ba34b7b760d91b606082015260800190565b60805160601c60a05160601c60c05160601c612abb6200021d6000398061089f5280611eaf5250806116165280611ab052508061164052806116845280611744528061181a5250612abb6000f3fe60806040526004361061027b5760003560e01c806303b049361461028057806303cd2571146102b65780630604ddea146102d85780630e9272ea146102ed578063126082cf1461030f57806312d43a511461032457806314dd2dce146103395780631a1533911461035b578063287800c91461037b5780632a709b14146103905780632e9cd94b146103a557806331cb6105146103c5578063336eb6ae146103e5578063392e53cd1461040557806344c231931461041a5780634576bbd81461043a5780634bd66c1c146102d85780634c0e31c81461044d5780634f64b2be1461046d5780634fdfb0861461048d57806354aea127146104ad57806363a22d71146104c2578063668d3d65146104e2578063695d4184146104f75780636c56fd051461050c5780636ccd47c41461052c578063715c75361461054157806372279ba11461055657806374bfed891461058657806378e8ab171461059b5780637cb2b79c146105ae5780637df73e27146105ce5780637fece368146105ee57806382553aad1461060e5780638b7677f41461062e57806395082d251461064e578063a2b47c1614610663578063a374242514610678578063a6eca89614610698578063b0a25666146106ad578063b3606b56146106c2578063b70c7b70146106d7578063c84a9124146106f7578063cab44b761461070c578063ce98dfa81461073c578063cfad57a21461075c578063cfed246b1461077c578063d6a153f11461079c578063d925351a146107bc578063de0d1b94146107dc578063dfb481c9146107fc578063e64559ad14610811578063e68a22c014610826578063eeaa783a1461083b578063f90ce5ba14610850578063f98d06f014610865575b600080fd5b34801561028c57600080fd5b506102a061029b366004612094565b61087a565b6040516102ad919061257c565b60405180910390f35b3480156102c257600080fd5b506102cb61088f565b6040516102ad9190612587565b3480156102e457600080fd5b506102cb610895565b3480156102f957600080fd5b5061030261089d565b6040516102ad919061248c565b34801561031b57600080fd5b506102cb6108c1565b34801561033057600080fd5b506103026108c7565b34801561034557600080fd5b5061035961035436600461232a565b6108d6565b005b34801561036757600080fd5b50610359610376366004612124565b61090e565b34801561038757600080fd5b506102cb610963565b34801561039c57600080fd5b50610302610969565b3480156103b157600080fd5b506103596103c036600461232a565b610978565b3480156103d157600080fd5b506103596103e0366004612124565b6109a7565b3480156103f157600080fd5b506102cb610400366004612094565b6109fc565b34801561041157600080fd5b506102a0610a0e565b34801561042657600080fd5b5061035961043536600461232a565b610a1e565b6103596104483660046120af565b610a6f565b34801561045957600080fd5b506103596104683660046121a0565b610c50565b34801561047957600080fd5b5061030261048836600461232a565b610cfe565b34801561049957600080fd5b506102a06104a8366004612094565b610d25565b3480156104b957600080fd5b506102cb610d3a565b3480156104ce57600080fd5b506103596104dd36600461235a565b610d40565b3480156104ee57600080fd5b506102cb610ef3565b34801561050357600080fd5b506102a0610ef9565b34801561051857600080fd5b506102a0610527366004612094565b610f09565b34801561053857600080fd5b50610359610f94565b34801561054d57600080fd5b506102cb611054565b34801561056257600080fd5b50610576610571366004612094565b61105a565b6040516102ad94939291906129df565b34801561059257600080fd5b506102cb6110d8565b6103596105a9366004612258565b6110de565b3480156105ba57600080fd5b506103596105c9366004612094565b61111b565b3480156105da57600080fd5b506102a06105e9366004612094565b611167565b3480156105fa57600080fd5b506102cb61060936600461215f565b61117c565b34801561061a57600080fd5b5061035961062936600461232a565b611308565b34801561063a57600080fd5b5061035961064936600461232a565b611337565b34801561065a57600080fd5b506102cb611366565b34801561066f57600080fd5b506102cb611376565b34801561068457600080fd5b506102cb610693366004612094565b61137d565b3480156106a457600080fd5b506102cb61138f565b3480156106b957600080fd5b506102cb611395565b3480156106ce57600080fd5b506102cb61139b565b3480156106e357600080fd5b506103596106f236600461232a565b6113a1565b34801561070357600080fd5b506103596113d0565b34801561071857600080fd5b5061072c610727366004612094565b61148b565b6040516102ad9493929190612999565b34801561074857600080fd5b50610359610757366004612297565b6114ca565b34801561076857600080fd5b50610359610777366004612094565b611512565b34801561078857600080fd5b506102cb610797366004612094565b61155e565b3480156107a857600080fd5b506103596107b736600461232a565b611570565b3480156107c857600080fd5b506103596107d736600461232a565b61159f565b3480156107e857600080fd5b506103596107f736600461232a565b6115ce565b34801561080857600080fd5b506102cb6115fd565b34801561081d57600080fd5b506102cb611603565b34801561083257600080fd5b506102cb611609565b34801561084757600080fd5b50610302611614565b34801561085c57600080fd5b506102cb611638565b34801561087157600080fd5b5061030261163e565b60136020526000908152604090205460ff1681565b60045481565b63ffffffff81565b7f000000000000000000000000000000000000000000000000000000000000000081565b61271081565b6000546001600160a01b031681565b6000546001600160a01b031633146109095760405162461bcd60e51b8152600401610900906127c2565b60405180910390fd5b600255565b6000546001600160a01b031633146109385760405162461bcd60e51b8152600401610900906127c2565b6001600160a01b03919091166000908152600d60205260409020805460ff1916911515919091179055565b600b5481565b6001546001600160a01b031681565b6001546001600160a01b031633146109a25760405162461bcd60e51b8152600401610900906128ee565b600955565b6000546001600160a01b031633146109d15760405162461bcd60e51b8152600401610900906127c2565b6001600160a01b03919091166000908152601260205260409020805460ff1916911515919091179055565b600f6020526000908152604090205481565b600054600160a01b900460ff1681565b6000546001600160a01b03163314610a485760405162461bcd60e51b8152600401610900906127c2565b610708811115610a6a5760405162461bcd60e51b815260040161090090612643565b600455565b336000908152600d602052604090205460ff16610a9e5760405162461bcd60e51b8152600401610900906128ee565b610aa88686611662565b60008790506000610b2a84836001600160a01b0316639b5786206040518163ffffffff1660e01b815260040160206040518083038186803b158015610aec57600080fd5b505afa158015610b00573d6000803e3d6000fd5b505050506040513d601f19601f82011682018060405250810190610b249190612342565b9061196c565b90506000610b6b84846001600160a01b0316631bca8cf06040518163ffffffff1660e01b815260040160206040518083038186803b158015610aec57600080fd5b905081871115610b79578196505b80861115610b85578095505b604051629a208160e81b81526001600160a01b03841690639a20810090610bb2908a9033906004016129c8565b600060405180830381600087803b158015610bcc57600080fd5b505af1158015610be0573d6000803e3d6000fd5b505060405163f3883d8b60e01b81526001600160a01b038616925063f3883d8b9150610c1290899033906004016129c8565b600060405180830381600087803b158015610c2c57600080fd5b505af1158015610c40573d6000803e3d6000fd5b5050505050505050505050505050565b6001546001600160a01b03163314610c7a5760405162461bcd60e51b8152600401610900906128ee565b8051825114610c9b5760405162461bcd60e51b8152600401610900906126f5565b60005b8251811015610cf9576000838281518110610cb557fe5b60200260200101519050828281518110610ccb57fe5b6020908102919091018101516001600160a01b03909216600090815260119091526040902055600101610c9e565b505050565b60148181548110610d0b57fe5b6000918252602090912001546001600160a01b0316905081565b600d6020526000908152604090205460ff1681565b60025481565b6000546001600160a01b03163314610d6a5760405162461bcd60e51b8152600401610900906127c2565b600054600160a01b900460ff1615610d945760405162461bcd60e51b815260040161090090612957565b8051825114610db55760405162461bcd60e51b815260040161090090612920565b6000805460ff60a01b1916600160a01b178155600b8690555b8451811015610e21576000858281518110610de557fe5b6020908102919091018101516001600160a01b03166000908152601290915260409020805460ff19166001908117909155919091019050610dce565b5060005b8351811015610e78576000848281518110610e3c57fe5b6020908102919091018101516001600160a01b03166000908152600d90915260409020805460ff19166001908117909155919091019050610e25565b508151610e8c906014906020850190611f14565b5060005b8251811015610eeb576000838281518110610ea757fe5b60200260200101519050828281518110610ebd57fe5b6020908102919091018101516001600160a01b039092166000908152600f9091526040902055600101610e90565b505050505050565b61070881565b600054600160a81b900460ff1681565b60008054600160a81b900460ff1615610f2457506000610f8f565b600b54600c5410610f3757506000610f8f565b600080610f438461105a565b9350935050508181118015610f7857506001600160a01b038416600090815260116020526040902054610f76828461199a565b115b15610f8857600092505050610f8f565b6001925050505b919050565b3360009081526012602052604090205460ff16610fc35760405162461bcd60e51b8152600401610900906128ee565b3360009081526013602052604090205460ff16610ff25760405162461bcd60e51b81526004016109009061278b565b336000908152601360205260409020805460ff19169055600c5461101790600161199a565b600c556040517f9fe0c305c33aa92757a537936872a60be0d91549a4303cc99fd8b7fce8a002759061104a90339061248c565b60405180910390a1565b600a5481565b600080600080611068611f79565b505050506001600160a01b039182166000908152601060209081526040918290208251608081018452905494851680825263ffffffff600160a01b87048116938301849052600160c01b87048116948301859052600160e01b909604909516606090910181905293949093919250565b60065481565b336000908152600d602052604090205460ff1661110d5760405162461bcd60e51b8152600401610900906128ee565b6111178282611662565b5050565b6001546001600160a01b031633146111455760405162461bcd60e51b8152600401610900906128ee565b600180546001600160a01b0319166001600160a01b0392909216919091179055565b60126020526000908152604090205460ff1681565b600061119560055460025461196c90919063ffffffff16565b4211156111f65781156111d6576111cf6127106111c96111c260075461271061196c90919063ffffffff16565b86906119dc565b90611a16565b9050611301565b6111cf6127106111c96111c260075461271061199a90919063ffffffff16565b6004546002546112059161196c565b421115611252578115611232576111cf6127106111c96111c260065461271061196c90919063ffffffff16565b6111cf6127106111c96111c260065461271061199a90919063ffffffff16565b6001600160a01b0384166000908152600e6020526040902054806112795783915050611301565b60008185116112915761128c828661199a565b61129b565b61129b858361199a565b90506112ad856111c9836127106119dc565b905060006112ba87610f09565b15806112c75750600a5482115b905080156112fb5784156112ee578286116112e257826112e4565b855b9350505050611301565b8286106112e257826112e4565b50909150505b9392505050565b6001546001600160a01b031633146113325760405162461bcd60e51b8152600401610900906128ee565b600a55565b6000546001600160a01b031633146113615760405162461bcd60e51b8152600401610900906127c2565b600555565b68327cb2734119d3b7a9601e1b81565b6298968081565b60116020526000908152604090205481565b60075481565b600c5481565b60085481565b6000546001600160a01b031633146113cb5760405162461bcd60e51b8152600401610900906127c2565b600655565b3360009081526012602052604090205460ff166113ff5760405162461bcd60e51b8152600401610900906128ee565b3360009081526013602052604090205460ff161561142f5760405162461bcd60e51b8152600401610900906125e3565b336000908152601360205260409020805460ff19166001908117909155600c546114589161196c565b600c556040517f4c0c5fabf50e808e3bc8d19577d305e3a7163eea7e8a74a50caa8896694cd44b9061104a90339061248c565b6010602052600090815260409020546001600160a01b0381169063ffffffff600160a01b8204811691600160c01b8104821691600160e01b9091041684565b6000546001600160a01b031633146114f45760405162461bcd60e51b8152600401610900906127c2565b60008054911515600160a81b0260ff60a81b19909216919091179055565b6000546001600160a01b0316331461153c5760405162461bcd60e51b8152600401610900906127c2565b600080546001600160a01b0319166001600160a01b0392909216919091179055565b600e6020526000908152604090205481565b6000546001600160a01b0316331461159a5760405162461bcd60e51b8152600401610900906127c2565b600855565b6001546001600160a01b031633146115c95760405162461bcd60e51b8152600401610900906128ee565b600b55565b6000546001600160a01b031633146115f85760405162461bcd60e51b8152600401610900906127c2565b600755565b60095481565b60055481565b6001600160a01b0381565b7f000000000000000000000000000000000000000000000000000000000000000081565b60035481565b7f000000000000000000000000000000000000000000000000000000000000000081565b61166a611a55565b60405163d47eed4560e01b81526000906001600160a01b037f0000000000000000000000000000000000000000000000000000000000000000169063d47eed45906116bb90869086906004016124e7565b60206040518083038186803b1580156116d357600080fd5b505afa1580156116e7573d6000803e3d6000fd5b505050506040513d601f19601f8201168201806040525081019061170b9190612342565b90508034101561172d5760405162461bcd60e51b815260040161090090612736565b604051631df3cbc560e31b81526001600160a01b037f0000000000000000000000000000000000000000000000000000000000000000169063ef9e5e2890839061177d90879087906004016124e7565b6000604051808303818588803b15801561179657600080fd5b505af11580156117aa573d6000803e3d6000fd5b50506014546004549093509150600090505b82811015610eeb576000601482815481106117d357fe5b60009182526020808320909101546001600160a01b0316808352600f909152604090912054909150611803611f79565b6040516331d98b3f60e01b81526001600160a01b037f000000000000000000000000000000000000000000000000000000000000000016906331d98b3f9061184f908590600401612587565b60806040518083038186803b15801561186757600080fd5b505afa15801561187b573d6000803e3d6000fd5b505050506040513d601f19601f8201168201806040525081019061189f91906122b3565b90506000816000015160070b136118c85760405162461bcd60e51b815260040161090090612762565b8442038160600151116118ed5760405162461bcd60e51b815260040161090090612619565b6000816000015160070b90506000826040015160030b121561193757604082015160000360030b600a0a8068327cb2734119d3b7a9601e1b83028161192e57fe5b04915050611952565b604082015160030b600a0a0268327cb2734119d3b7a9601e1b025b61195c8482611a96565b5050600190920191506117bc9050565b6000828201838110156119915760405162461bcd60e51b8152600401610900906126c0565b90505b92915050565b600061199183836040518060400160405280601e81526020017f536166654d6174683a207375627472616374696f6e206f766572666c6f770000815250611d12565b6000826119eb57506000611994565b828202828482816119f857fe5b04146119915760405162461bcd60e51b8152600401610900906127f1565b600061199183836040518060400160405280601a815260200179536166654d6174683a206469766973696f6e206279207a65726f60301b815250611d3e565b60085415611a8c57600854600354611a6e90439061199a565b1015611a8c5760405162461bcd60e51b815260040161090090612869565b4260025543600355565b6040516315afe77960e21b81526000906001600160a01b037f000000000000000000000000000000000000000000000000000000000000000016906356bf9de490611ae590869060040161248c565b60206040518083038186803b158015611afd57600080fd5b505afa158015611b11573d6000803e3d6000fd5b505050506040513d601f19601f82011682018060405250810190611b359190612342565b6001600160a01b0384166000908152600e6020526040812054919250808080611b5d8861105a565b93509350935093506000841115611c24576000848711611b8657611b81858861199a565b611b90565b611b90878661199a565b90506000888711611baa57611ba5898861199a565b611bb4565b611bb4878a61199a565b9050611bcb60095442611a1690919063ffffffff16565b600954611bd9908790611a16565b14611be75760009350600092505b611c02611bfb876111c985629896806119dc565b859061196c565b9350611c1f611c18886111c984629896806119dc565b849061196c565b925050505b8181118015611c5357506001600160a01b038816600090815260116020526040902054611c51828461199a565b115b15611c98577fe582322b389ad06b2bbf619cd6da3f16a288ec873ea0fa6df4d72f3d9480b4478887878585604051611c8f9594939291906124b9565b60405180910390a15b611ca488878484611d75565b7f23b9387f81fca646aac1dc4487ede045c65f5f7445482906565f01e05afdb3a88887878585604051611cdb9594939291906124b9565b60405180910390a16001600160a01b0388166000908152600e60205260409020879055611d088888611e98565b5050505050505050565b60008184841115611d365760405162461bcd60e51b81526004016109009190612590565b505050900390565b60008183611d5f5760405162461bcd60e51b81526004016109009190612590565b506000838581611d6b57fe5b0495945050505050565b6001600160a01b038310611d9b5760405162461bcd60e51b815260040161090090612832565b63ffffffff8210611dbe5760405162461bcd60e51b8152600401610900906128b7565b63ffffffff8110611de15760405162461bcd60e51b815260040161090090612688565b604080516080810182526001600160a01b03948516815263ffffffff4281166020808401918252958216838501908152948216606084019081529787166000908152601090965292909420905181549251935196518516600160e01b026001600160e01b03978616600160c01b0263ffffffff60c01b1995909616600160a01b0263ffffffff60a01b19929097166001600160a01b0319909416939093171694909417919091169190911792909216919091179055565b60405163e0409c7160e01b81526001600160a01b037f0000000000000000000000000000000000000000000000000000000000000000169063e0409c7190611ee690859085906004016124a0565b600060405180830381600087803b158015611f0057600080fd5b505af1158015610eeb573d6000803e3d6000fd5b828054828255906000526020600020908101928215611f69579160200282015b82811115611f6957825182546001600160a01b0319166001600160a01b03909116178255602090920191600190910190611f34565b50611f75929150611fa0565b5090565b60408051608081018252600080825260208201819052918101829052606081019190915290565b5b80821115611f755780546001600160a01b0319168155600101611fa1565b80356001600160a01b038116811461199457600080fd5b600082601f830112611fe6578081fd5b8135611ff9611ff482612a20565b6129fa565b81815291506020808301908481018184028601820187101561201a57600080fd5b60005b848110156120415761202f8883611fbf565b8452928201929082019060010161201d565b505050505092915050565b60008083601f84011261205d578182fd5b5081356001600160401b03811115612073578182fd5b602083019150836020808302850101111561208d57600080fd5b9250929050565b6000602082840312156120a5578081fd5b6119918383611fbf565b600080600080600080600060c0888a0312156120c9578283fd5b87356120d481612a3f565b965060208801356001600160401b038111156120ee578384fd5b6120fa8a828b0161204c565b989b909a509798604081013598606082013598506080820135975060a09091013595509350505050565b60008060408385031215612136578182fd5b6121408484611fbf565b915060208301358015158114612154578182fd5b809150509250929050565b600080600060608486031215612173578283fd5b833561217e81612a3f565b925060208401359150604084013561219581612a57565b809150509250925092565b600080604083850312156121b2578182fd5b82356001600160401b03808211156121c8578384fd5b6121d486838701611fd6565b93506020915081850135818111156121ea578384fd5b85019050601f810186136121fc578283fd5b803561220a611ff482612a20565b81815283810190838501858402850186018a1015612226578687fd5b8694505b8385101561224857803583526001949094019391850191850161222a565b5080955050505050509250929050565b6000806020838503121561226a578182fd5b82356001600160401b0381111561227f578283fd5b61228b8582860161204c565b90969095509350505050565b6000602082840312156122a8578081fd5b813561199181612a57565b6000608082840312156122c4578081fd5b6122ce60806129fa565b82518060070b81146122de578283fd5b815260208301516001600160401b03811681146122f9578283fd5b60208201526040830151600381900b8114612312578283fd5b60408201526060928301519281019290925250919050565b60006020828403121561233b578081fd5b5035919050565b600060208284031215612353578081fd5b5051919050565b600080600080600060a08688031215612371578283fd5b853594506020808701356001600160401b038082111561238f578586fd5b61239b8a838b01611fd6565b965060408901359150808211156123b0578586fd5b6123bc8a838b01611fd6565b955060608901359150808211156123d1578384fd5b6123dd8a838b01611fd6565b945060808901359150808211156123f2578384fd5b508701601f81018913612403578283fd5b8035612411611ff482612a20565b81815283810190838501858402850186018d101561242d578687fd5b8694505b8385101561244f578035835260019490940193918501918501612431565b5080955050505050509295509295909350565b60008284528282602086013780602084860101526020601f19601f85011685010190509392505050565b6001600160a01b0391909116815260200190565b6001600160a01b03929092168252602082015260400190565b6001600160a01b03959095168552602085019390935260408401919091526060830152608082015260a00190565b602080825281810183905260009060408482028401810190840186845b8781101561256f57868403603f190183528135368a9003601e19018112612529578687fd5b890180356001600160401b03811115612540578788fd5b8036038b131561254e578788fd5b61255b8682898501612462565b955050509184019190840190600101612504565b5091979650505050505050565b901515815260200190565b90815260200190565b6000602080835283518082850152825b818110156125bc578581018301518582016040015282016125a0565b818111156125cd5783604083870101525b50601f01601f1916929092016040019392505050565b6020808252601c908201527b11985cdd141c9a58d9519959590e88185b1c9958591e481d9bdd195960221b604082015260600190565b60208082526010908201526f7374616c65207079746820707269636560801b604082015260600190565b60208082526025908201527f466173745072696365466565643a20696e76616c6964205f707269636544757260408201526430ba34b7b760d91b606082015260800190565b6020808252602a90820152600080516020612a66833981519152604082015269654661737444656c746160b01b606082015260800190565b6020808252601b908201527a536166654d6174683a206164646974696f6e206f766572666c6f7760281b604082015260600190565b60208082526021908201527f466173745072696365466565643a206d69736d617463686564206c656e6774686040820152607360f81b606082015260800190565b602080825260129082015271696e73756666696369656e742076616c756560701b604082015260600190565b6020808252600f908201526e070797468207072696365203c3d203608c1b604082015260600190565b6020808252601e908201527f466173745072696365466565643a20616c726561647920656e61626c65640000604082015260600190565b60208082526015908201527423b7bb32b93730b136329d103337b93134b23232b760591b604082015260600190565b60208082526021908201527f536166654d6174683a206d756c7469706c69636174696f6e206f766572666c6f6040820152607760f81b606082015260800190565b6020808252601f908201527f466173745072696365466565643a20696e76616c696420726566507269636500604082015260600190565b6020808252602e908201527f466173745072696365466565643a206d696e426c6f636b496e74657276616c2060408201526d1b9bdd081e595d081c185cdcd95960921b606082015260800190565b6020808252602990820152600080516020612a668339815191526040820152686552656644656c746160b81b606082015260800190565b6020808252601890820152772330b9ba283934b1b2a332b2b21d103337b93134b23232b760411b604082015260600190565b6020808252601e908201527f466173745072696365466565643a20696e76616c6964206c656e677468730000604082015260600190565b60208082526022908201527f466173745072696365466565643a20616c726561647920696e697469616c697a604082015261195960f21b606082015260800190565b6001600160a01b0394909416845263ffffffff9283166020850152908216604084015216606082015260800190565b9182526001600160a01b0316602082015260400190565b93845260208401929092526040830152606082015260800190565b6040518181016001600160401b0381118282101715612a1857600080fd5b604052919050565b60006001600160401b03821115612a35578081fd5b5060209081020190565b6001600160a01b0381168114612a5457600080fd5b50565b8015158114612a5457600080fdfe466173745072696365466565643a20696e76616c69642063756d756c61746976a264697066735822122032c2d753067f7c7d15df320cc29e08317652ad384864603741fa55151ca5acbf64736f6c634300060c0033",
  "linkReferences": {},
  "deployedLinkReferences": {}
}