{
  "_format": "hh-sol-artifact-1",
  "contractName": "PriceFeedTimelock",
  "sourceName": "contracts/peripherals/PriceFeedTimelock.sol",
  "abi": [
    {
      "inputs": [
        {
          "internalType": "address",
          "name": "_admin",
          "type": "address"
        },
        {
          "internalType": "uint256",
          "name": "_buffer",
          "type": "uint256"
        },
        {
          "internalType": "address",
          "name": "_tokenManager",
          "type": "address"
        }
      ],
      "stateMutability": "nonpayable",
      "type": "constructor"
    },
    {
      "anonymous": false,
      "inputs": [
        {
          "indexed": false,
          "internalType": "bytes32",
          "name": "action",
          "type": "bytes32"
        }
      ],
      "name": "ClearAction",
      "type": "event"
    },
    {
      "anonymous": false,
      "inputs": [
        {
          "indexed": false,
          "internalType": "address",
          "name": "token",
          "type": "address"
        },
        {
          "indexed": false,
          "internalType": "address",
          "name": "spender",
          "type": "address"
        },
        {
          "indexed": false,
          "internalType": "uint256",
          "name": "amount",
          "type": "uint256"
        },
        {
          "indexed": false,
          "internalType": "bytes32",
          "name": "action",
          "type": "bytes32"
        }
      ],
      "name": "SignalApprove",
      "type": "event"
    },
    {
      "anonymous": false,
      "inputs": [
        {
          "indexed": false,
          "internalType": "bytes32",
          "name": "action",
          "type": "bytes32"
        }
      ],
      "name": "SignalPendingAction",
      "type": "event"
    },
    {
      "anonymous": false,
      "inputs": [
        {
          "indexed": false,
          "internalType": "address",
          "name": "vaultPriceFeed",
          "type": "address"
        },
        {
          "indexed": false,
          "internalType": "address",
          "name": "token",
          "type": "address"
        },
        {
          "indexed": false,
          "internalType": "address",
          "name": "priceFeed",
          "type": "address"
        },
        {
          "indexed": false,
          "internalType": "uint256",
          "name": "priceDecimals",
          "type": "uint256"
        },
        {
          "indexed": false,
          "internalType": "bool",
          "name": "isStrictStable",
          "type": "bool"
        }
      ],
      "name": "SignalPriceFeedSetTokenConfig",
      "type": "event"
    },
    {
      "anonymous": false,
      "inputs": [
        {
          "indexed": false,
          "internalType": "address",
          "name": "target",
          "type": "address"
        },
        {
          "indexed": false,
          "internalType": "address",
          "name": "gov",
          "type": "address"
        },
        {
          "indexed": false,
          "internalType": "bytes32",
          "name": "action",
          "type": "bytes32"
        }
      ],
      "name": "SignalSetGov",
      "type": "event"
    },
    {
      "anonymous": false,
      "inputs": [
        {
          "indexed": false,
          "internalType": "address",
          "name": "fastPriceFeed",
          "type": "address"
        },
        {
          "indexed": false,
          "internalType": "address",
          "name": "account",
          "type": "address"
        },
        {
          "indexed": false,
          "internalType": "bool",
          "name": "isActive",
          "type": "bool"
        }
      ],
      "name": "SignalSetPriceFeedWatcher",
      "type": "event"
    },
    {
      "anonymous": false,
      "inputs": [
        {
          "indexed": false,
          "internalType": "address",
          "name": "target",
          "type": "address"
        },
        {
          "indexed": false,
          "internalType": "address",
          "name": "token",
          "type": "address"
        },
        {
          "indexed": false,
          "internalType": "address",
          "name": "receiver",
          "type": "address"
        },
        {
          "indexed": false,
          "internalType": "uint256",
          "name": "amount",
          "type": "uint256"
        },
        {
          "indexed": false,
          "internalType": "bytes32",
          "name": "action",
          "type": "bytes32"
        }
      ],
      "name": "SignalWithdrawToken",
      "type": "event"
    },
    {
      "inputs": [],
      "name": "MAX_BUFFER",
      "outputs": [
        {
          "internalType": "uint256",
          "name": "",
          "type": "uint256"
        }
      ],
      "stateMutability": "view",
      "type": "function"
    },
    {
      "inputs": [],
      "name": "admin",
      "outputs": [
        {
          "internalType": "address",
          "name": "",
          "type": "address"
        }
      ],
      "stateMutability": "view",
      "type": "function"
    },
    {
      "inputs": [
        {
          "internalType": "address",
          "name": "_token",
          "type": "address"
        },
        {
          "internalType": "address",
          "name": "_spender",
          "type": "address"
        },
        {
          "internalType": "uint256",
          "name": "_amount",
          "type": "uint256"
        }
      ],
      "name": "approve",
      "outputs": [],
      "stateMutability": "nonpayable",
      "type": "function"
    },
    {
      "inputs": [],
      "name": "buffer",
      "outputs": [
        {
          "internalType": "uint256",
          "name": "",
          "type": "uint256"
        }
      ],
      "stateMutability": "view",
      "type": "function"
    },
    {
      "inputs": [
        {
          "internalType": "bytes32",
          "name": "_action",
          "type": "bytes32"
        }
      ],
      "name": "cancelAction",
      "outputs": [],
      "stateMutability": "nonpayable",
      "type": "function"
    },
    {
      "inputs": [
        {
          "internalType": "address",
          "name": "",
          "type": "address"
        }
      ],
      "name": "isHandler",
      "outputs": [
        {
          "internalType": "bool",
          "name": "",
          "type": "bool"
        }
      ],
      "stateMutability": "view",
      "type": "function"
    },
    {
      "inputs": [
        {
          "internalType": "address",
          "name": "",
          "type": "address"
        }
      ],
      "name": "isKeeper",
      "outputs": [
        {
          "internalType": "bool",
          "name": "",
          "type": "bool"
        }
      ],
      "stateMutability": "view",
      "type": "function"
    },
    {
      "inputs": [
        {
          "internalType": "bytes32",
          "name": "",
          "type": "bytes32"
        }
      ],
      "name": "pendingActions",
      "outputs": [
        {
          "internalType": "uint256",
          "name": "",
          "type": "uint256"
        }
      ],
      "stateMutability": "view",
      "type": "function"
    },
    {
      "inputs": [
        {
          "internalType": "address",
          "name": "_vaultPriceFeed",
          "type": "address"
        },
        {
          "internalType": "address",
          "name": "_token",
          "type": "address"
        },
        {
          "internalType": "address",
          "name": "_priceFeed",
          "type": "address"
        },
        {
          "internalType": "uint256",
          "name": "_priceDecimals",
          "type": "uint256"
        },
        {
          "internalType": "bool",
          "name": "_isStrictStable",
          "type": "bool"
        }
      ],
      "name": "priceFeedSetTokenConfig",
      "outputs": [],
      "stateMutability": "nonpayable",
      "type": "function"
    },
    {
      "inputs": [
        {
          "internalType": "address",
          "name": "_priceFeed",
          "type": "address"
        },
        {
          "internalType": "address",
          "name": "_token",
          "type": "address"
        },
        {
          "internalType": "bool",
          "name": "_isAdditive",
          "type": "bool"
        },
        {
          "internalType": "uint256",
          "name": "_adjustmentBps",
          "type": "uint256"
        }
      ],
      "name": "setAdjustment",
      "outputs": [],
      "stateMutability": "nonpayable",
      "type": "function"
    },
    {
      "inputs": [
        {
          "internalType": "address",
          "name": "_admin",
          "type": "address"
        }
      ],
      "name": "setAdmin",
      "outputs": [],
      "stateMutability": "nonpayable",
      "type": "function"
    },
    {
      "inputs": [
        {
          "internalType": "uint256",
          "name": "_buffer",
          "type": "uint256"
        }
      ],
      "name": "setBuffer",
      "outputs": [],
      "stateMutability": "nonpayable",
      "type": "function"
    },
    {
      "inputs": [
        {
          "internalType": "address",
          "name": "_handler",
          "type": "address"
        },
        {
          "internalType": "bool",
          "name": "_isActive",
          "type": "bool"
        }
      ],
      "name": "setContractHandler",
      "outputs": [],
      "stateMutability": "nonpayable",
      "type": "function"
    },
    {
      "inputs": [
        {
          "internalType": "address",
          "name": "_target",
          "type": "address"
        },
        {
          "internalType": "address",
          "name": "_admin",
          "type": "address"
        }
      ],
      "name": "setExternalAdmin",
      "outputs": [],
      "stateMutability": "nonpayable",
      "type": "function"
    },
    {
      "inputs": [
        {
          "internalType": "address",
          "name": "_target",
          "type": "address"
        },
        {
          "internalType": "address",
          "name": "_gov",
          "type": "address"
        }
      ],
      "name": "setGov",
      "outputs": [],
      "stateMutability": "nonpayable",
      "type": "function"
    },
    {
      "inputs": [
        {
          "internalType": "address",
          "name": "_priceFeed",
          "type": "address"
        },
        {
          "internalType": "bool",
          "name": "_isEnabled",
          "type": "bool"
        }
      ],
      "name": "setIsAmmEnabled",
      "outputs": [],
      "stateMutability": "nonpayable",
      "type": "function"
    },
    {
      "inputs": [
        {
          "internalType": "address",
          "name": "_priceFeed",
          "type": "address"
        },
        {
          "internalType": "bool",
          "name": "_isEnabled",
          "type": "bool"
        }
      ],
      "name": "setIsSecondaryPriceEnabled",
      "outputs": [],
      "stateMutability": "nonpayable",
      "type": "function"
    },
    {
      "inputs": [
        {
          "internalType": "address",
          "name": "_fastPriceFeed",
          "type": "address"
        },
        {
          "internalType": "bool",
          "name": "_isSpreadEnabled",
          "type": "bool"
        }
      ],
      "name": "setIsSpreadEnabled",
      "outputs": [],
      "stateMutability": "nonpayable",
      "type": "function"
    },
    {
      "inputs": [
        {
          "internalType": "address",
          "name": "_keeper",
          "type": "address"
        },
        {
          "internalType": "bool",
          "name": "_isActive",
          "type": "bool"
        }
      ],
      "name": "setKeeper",
      "outputs": [],
      "stateMutability": "nonpayable",
      "type": "function"
    },
    {
      "inputs": [
        {
          "internalType": "address",
          "name": "_fastPriceFeed",
          "type": "address"
        },
        {
          "internalType": "uint256",
          "name": "_maxPriceUpdateDelay",
          "type": "uint256"
        }
      ],
      "name": "setMaxPriceUpdateDelay",
      "outputs": [],
      "stateMutability": "nonpayable",
      "type": "function"
    },
    {
      "inputs": [
        {
          "internalType": "address",
          "name": "_priceFeed",
          "type": "address"
        },
        {
          "internalType": "uint256",
          "name": "_maxStrictPriceDeviation",
          "type": "uint256"
        }
      ],
      "name": "setMaxStrictPriceDeviation",
      "outputs": [],
      "stateMutability": "nonpayable",
      "type": "function"
    },
    {
      "inputs": [
        {
          "internalType": "address",
          "name": "_fastPriceFeed",
          "type": "address"
        },
        {
          "internalType": "uint256",
          "name": "_minBlockInterval",
          "type": "uint256"
        }
      ],
      "name": "setMinBlockInterval",
      "outputs": [],
      "stateMutability": "nonpayable",
      "type": "function"
    },
    {
      "inputs": [
        {
          "internalType": "address",
          "name": "_fastPriceFeed",
          "type": "address"
        },
        {
          "internalType": "uint256",
          "name": "_priceDuration",
          "type": "uint256"
        }
      ],
      "name": "setPriceDuration",
      "outputs": [],
      "stateMutability": "nonpayable",
      "type": "function"
    },
    {
      "inputs": [
        {
          "internalType": "address",
          "name": "_fastPriceFeed",
          "type": "address"
        },
        {
          "internalType": "address",
          "name": "_account",
          "type": "address"
        },
        {
          "internalType": "bool",
          "name": "_isActive",
          "type": "bool"
        }
      ],
      "name": "setPriceFeedUpdater",
      "outputs": [],
      "stateMutability": "nonpayable",
      "type": "function"
    },
    {
      "inputs": [
        {
          "internalType": "address",
          "name": "_fastPriceFeed",
          "type": "address"
        },
        {
          "internalType": "address",
          "name": "_account",
          "type": "address"
        },
        {
          "internalType": "bool",
          "name": "_isActive",
          "type": "bool"
        }
      ],
      "name": "setPriceFeedWatcher",
      "outputs": [],
      "stateMutability": "nonpayable",
      "type": "function"
    },
    {
      "inputs": [
        {
          "internalType": "address",
          "name": "_priceFeed",
          "type": "address"
        },
        {
          "internalType": "uint256",
          "name": "_priceSampleSpace",
          "type": "uint256"
        }
      ],
      "name": "setPriceSampleSpace",
      "outputs": [],
      "stateMutability": "nonpayable",
      "type": "function"
    },
    {
      "inputs": [
        {
          "internalType": "address",
          "name": "_priceFeed",
          "type": "address"
        },
        {
          "internalType": "address",
          "name": "_token",
          "type": "address"
        },
        {
          "internalType": "uint256",
          "name": "_spreadBasisPoints",
          "type": "uint256"
        }
      ],
      "name": "setSpreadBasisPoints",
      "outputs": [],
      "stateMutability": "nonpayable",
      "type": "function"
    },
    {
      "inputs": [
        {
          "internalType": "address",
          "name": "_fastPriceFeed",
          "type": "address"
        },
        {
          "internalType": "uint256",
          "name": "_spreadBasisPointsIfChainError",
          "type": "uint256"
        }
      ],
      "name": "setSpreadBasisPointsIfChainError",
      "outputs": [],
      "stateMutability": "nonpayable",
      "type": "function"
    },
    {
      "inputs": [
        {
          "internalType": "address",
          "name": "_fastPriceFeed",
          "type": "address"
        },
        {
          "internalType": "uint256",
          "name": "_spreadBasisPointsIfInactive",
          "type": "uint256"
        }
      ],
      "name": "setSpreadBasisPointsIfInactive",
      "outputs": [],
      "stateMutability": "nonpayable",
      "type": "function"
    },
    {
      "inputs": [
        {
          "internalType": "address",
          "name": "_priceFeed",
          "type": "address"
        },
        {
          "internalType": "bool",
          "name": "_useV2Pricing",
          "type": "bool"
        }
      ],
      "name": "setUseV2Pricing",
      "outputs": [],
      "stateMutability": "nonpayable",
      "type": "function"
    },
    {
      "inputs": [
        {
          "internalType": "address",
          "name": "_token",
          "type": "address"
        },
        {
          "internalType": "address",
          "name": "_spender",
          "type": "address"
        },
        {
          "internalType": "uint256",
          "name": "_amount",
          "type": "uint256"
        }
      ],
      "name": "signalApprove",
      "outputs": [],
      "stateMutability": "nonpayable",
      "type": "function"
    },
    {
      "inputs": [
        {
          "internalType": "address",
          "name": "_vaultPriceFeed",
          "type": "address"
        },
        {
          "internalType": "address",
          "name": "_token",
          "type": "address"
        },
        {
          "internalType": "address",
          "name": "_priceFeed",
          "type": "address"
        },
        {
          "internalType": "uint256",
          "name": "_priceDecimals",
          "type": "uint256"
        },
        {
          "internalType": "bool",
          "name": "_isStrictStable",
          "type": "bool"
        }
      ],
      "name": "signalPriceFeedSetTokenConfig",
      "outputs": [],
      "stateMutability": "nonpayable",
      "type": "function"
    },
    {
      "inputs": [
        {
          "internalType": "address",
          "name": "_target",
          "type": "address"
        },
        {
          "internalType": "address",
          "name": "_gov",
          "type": "address"
        }
      ],
      "name": "signalSetGov",
      "outputs": [],
      "stateMutability": "nonpayable",
      "type": "function"
    },
    {
      "inputs": [
        {
          "internalType": "address",
          "name": "_fastPriceFeed",
          "type": "address"
        },
        {
          "internalType": "address",
          "name": "_account",
          "type": "address"
        },
        {
          "internalType": "bool",
          "name": "_isActive",
          "type": "bool"
        }
      ],
      "name": "signalSetPriceFeedUpdater",
      "outputs": [],
      "stateMutability": "nonpayable",
      "type": "function"
    },
    {
      "inputs": [
        {
          "internalType": "address",
          "name": "_fastPriceFeed",
          "type": "address"
        },
        {
          "internalType": "address",
          "name": "_account",
          "type": "address"
        },
        {
          "internalType": "bool",
          "name": "_isActive",
          "type": "bool"
        }
      ],
      "name": "signalSetPriceFeedWatcher",
      "outputs": [],
      "stateMutability": "nonpayable",
      "type": "function"
    },
    {
      "inputs": [
        {
          "internalType": "address",
          "name": "_target",
          "type": "address"
        },
        {
          "internalType": "address",
          "name": "_token",
          "type": "address"
        },
        {
          "internalType": "address",
          "name": "_receiver",
          "type": "address"
        },
        {
          "internalType": "uint256",
          "name": "_amount",
          "type": "uint256"
        }
      ],
      "name": "signalWithdrawToken",
      "outputs": [],
      "stateMutability": "nonpayable",
      "type": "function"
    },
    {
      "inputs": [],
      "name": "tokenManager",
      "outputs": [
        {
          "internalType": "address",
          "name": "",
          "type": "address"
        }
      ],
      "stateMutability": "view",
      "type": "function"
    },
    {
      "inputs": [
        {
          "internalType": "address",
          "name": "_sender",
          "type": "address"
        },
        {
          "internalType": "address",
          "name": "_token",
          "type": "address"
        },
        {
          "internalType": "uint256",
          "name": "_amount",
          "type": "uint256"
        }
      ],
      "name": "transferIn",
      "outputs": [],
      "stateMutability": "nonpayable",
      "type": "function"
    },
    {
      "inputs": [
        {
          "internalType": "address",
          "name": "_target",
          "type": "address"
        },
        {
          "internalType": "address",
          "name": "_token",
          "type": "address"
        },
        {
          "internalType": "address",
          "name": "_receiver",
          "type": "address"
        },
        {
          "internalType": "uint256",
          "name": "_amount",
          "type": "uint256"
        }
      ],
      "name": "withdrawToken",
      "outputs": [],
      "stateMutability": "nonpayable",
      "type": "function"
    }
  ],
  "bytecode": "0x608060405234801561001057600080fd5b506040516127373803806127378339818101604052606081101561003357600080fd5b50805160208201516040909201519091906206978082111561009c576040805162461bcd60e51b815260206004820152601960248201527f54696d656c6f636b3a20696e76616c6964205f62756666657200000000000000604482015290519081900360640190fd5b600180546001600160a01b039485166001600160a01b0319918216179091556000929092556002805491909316911617905561265a806100dd6000396000f3fe608060405234801561001057600080fd5b50600436106101cd5760003560e01c8063185051c1146101d257806321754d9e146102025780632877f4c31461023e5780632965c8c71461026a578063296b07e5146102985780632a709b14146102d65780632a72e8ba146102fa5780633335e38a146103325780633799c61814610376578063384cae73146103ae578063395bc794146103f257806343ec66191461041e578063454ffa461461044c57806346ea87af1461047a5780634cd23f3b146104b457806350e32d1d146104f057806351a6de0d1461052857806355ef1395146105565780635843752f146105845780635b6348ac146105b257806361d07569146105de5780636ba42aaa146105f8578063704b6c021461061e578063781cc3d314610644578063996a7a1e14610661578063a0a316a21461068f578063adc7ea37146106bb578063b74517ba146106d8578063bd0f1c4514610704578063be03af5814610730578063d1b9e8531461075c578063db5c875f1461078a578063dce6e18d146107c2578063e1f21c67146107f8578063e30569e51461082e578063e4652f491461084b578063e7b0a3a114610881578063edaafe20146108b7578063f851a440146108bf575b600080fd5b610200600480360360408110156101e857600080fd5b506001600160a01b03813516906020013515156108c7565b005b6102006004803603608081101561021857600080fd5b506001600160a01b0381358116916020810135821691604082013516906060013561093f565b6102006004803603604081101561025457600080fd5b506001600160a01b038135169060200135610a8a565b6102006004803603604081101561028057600080fd5b506001600160a01b0381351690602001351515610ba5565b610200600480360360808110156102ae57600080fd5b506001600160a01b038135811691602081013590911690604081013515159060600135610c3a565b6102de610d3a565b604080516001600160a01b039092168252519081900360200190f35b6102006004803603606081101561031057600080fd5b506001600160a01b038135811691602081013590911690604001351515610d49565b610200600480360360a081101561034857600080fd5b506001600160a01b038135811691602081013582169160408201351690606081013590608001351515610e65565b6102006004803603606081101561038c57600080fd5b506001600160a01b038135811691602081013590911690604001351515610fbf565b610200600480360360a08110156103c457600080fd5b506001600160a01b0381358116916020810135821691604082013516906060810135906080013515156110ca565b6102006004803603604081101561040857600080fd5b506001600160a01b0381351690602001356111fb565b6102006004803603604081101561043457600080fd5b506001600160a01b038135169060200135151561128e565b6102006004803603604081101561046257600080fd5b506001600160a01b0381351690602001351515611323565b6104a06004803603602081101561049057600080fd5b50356001600160a01b03166113b8565b604080519115158252519081900360200190f35b610200600480360360808110156104ca57600080fd5b506001600160a01b038135811691602081013582169160408201351690606001356113cd565b6102006004803603606081101561050657600080fd5b506001600160a01b0381358116916020810135909116906040013515156114e8565b6102006004803603604081101561053e57600080fd5b506001600160a01b0381358116916020013516611604565b6102006004803603604081101561056c57600080fd5b506001600160a01b038135811691602001351661171b565b6102006004803603604081101561059a57600080fd5b506001600160a01b0381351690602001351515611811565b610200600480360360408110156105c857600080fd5b506001600160a01b0381351690602001356118a6565b6105e6611953565b60408051918252519081900360200190f35b6104a06004803603602081101561060e57600080fd5b50356001600160a01b031661195a565b6102006004803603602081101561063457600080fd5b50356001600160a01b031661196f565b6102006004803603602081101561065a57600080fd5b50356119de565b6102006004803603604081101561067757600080fd5b506001600160a01b0381358116916020013516611a37565b610200600480360360408110156106a557600080fd5b506001600160a01b038135169060200135611b28565b610200600480360360208110156106d157600080fd5b5035611bbb565b610200600480360360408110156106ee57600080fd5b506001600160a01b038135169060200135611ca1565b6102006004803603604081101561071a57600080fd5b506001600160a01b038135169060200135611d4e565b6102006004803603604081101561074657600080fd5b506001600160a01b038135169060200135611de1565b6102006004803603604081101561077257600080fd5b506001600160a01b0381351690602001351515611e74565b610200600480360360608110156107a057600080fd5b506001600160a01b038135811691602081013590911690604001351515611eec565b610200600480360360608110156107d857600080fd5b506001600160a01b03813581169160208101359091169060400135611fa6565b6102006004803603606081101561080e57600080fd5b506001600160a01b038135811691602081013590911690604001356120a8565b6105e66004803603602081101561084457600080fd5b50356121dd565b6102006004803603606081101561086157600080fd5b506001600160a01b038135811691602081013590911690604001356121ef565b6102006004803603606081101561089757600080fd5b506001600160a01b038135811691602081013590911690604001356122c6565b6105e661239e565b6102de6123a4565b6001546001600160a01b03163314610914576040805162461bcd60e51b81526020600482015260136024820152600080516020612605833981519152604482015290519081900360640190fd5b6001600160a01b03919091166000908152600460205260409020805460ff1916911515919091179055565b6001546001600160a01b0316331461098c576040805162461bcd60e51b81526020600482015260136024820152600080516020612605833981519152604482015290519081900360640190fd5b604080516c3bb4ba34323930bbaa37b5b2b760991b6020808301919091526001600160601b0319606088811b8216602d85015287811b8216604185015286901b166055830152606980830185905283518084039091018152608990920190925280519101206109fa816123b3565b610a038161245f565b846001600160a01b03166301e336678585856040518463ffffffff1660e01b815260040180846001600160a01b03168152602001836001600160a01b031681526020018281526020019350505050600060405180830381600087803b158015610a6b57600080fd5b505af1158015610a7f573d6000803e3d6000fd5b505050505050505050565b6001546001600160a01b0316331480610ab257503360009081526004602052604090205460ff165b610af1576040805162461bcd60e51b81526020600482015260136024820152600080516020612605833981519152604482015290519081900360640190fd5b6005811115610b43576040805162461bcd60e51b8152602060048201526019602482015278496e76616c6964205f707269636553616d706c65537061636560381b604482015290519081900360640190fd5b816001600160a01b0316632fa03b8f826040518263ffffffff1660e01b815260040180828152602001915050600060405180830381600087803b158015610b8957600080fd5b505af1158015610b9d573d6000803e3d6000fd5b505050505050565b6001546001600160a01b03163314610bf2576040805162461bcd60e51b81526020600482015260136024820152600080516020612605833981519152604482015290519081900360640190fd5b816001600160a01b031663eb1c92a9826040518263ffffffff1660e01b8152600401808215158152602001915050600060405180830381600087803b158015610b8957600080fd5b6001546001600160a01b0316331480610c6257503360009081526004602052604090205460ff165b80610c7c57503360009081526005602052604090205460ff165b610cbb576040805162461bcd60e51b81526020600482015260136024820152600080516020612605833981519152604482015290519081900360640190fd5b836001600160a01b031663d694376c8484846040518463ffffffff1660e01b815260040180846001600160a01b0316815260200183151581526020018281526020019350505050600060405180830381600087803b158015610d1c57600080fd5b505af1158015610d30573d6000803e3d6000fd5b5050505050505050565b6002546001600160a01b031681565b6001546001600160a01b03163314610d96576040805162461bcd60e51b81526020600482015260136024820152600080516020612605833981519152604482015290519081900360640190fd5b604080517239b2ba283934b1b2a332b2b22bb0ba31b432b960691b6020808301919091526001600160601b0319606087811b8216603385015286901b16604783015283151560f81b605b8301528251603c818403018152605c9092019092528051910120610e03816123b3565b610e0c8161245f565b836001600160a01b03166331cb610584846040518363ffffffff1660e01b815260040180836001600160a01b03168152602001821515815260200192505050600060405180830381600087803b158015610d1c57600080fd5b6001546001600160a01b03163314610eb2576040805162461bcd60e51b81526020600482015260136024820152600080516020612605833981519152604482015290519081900360640190fd5b6040805176707269636546656564536574546f6b656e436f6e66696760481b6020808301919091526001600160601b0319606089811b8216603785015288811b8216604b85015287901b16605f8301526073820185905283151560f81b60938301528251607481840301815260949092019092528051910120610f34816123b3565b610f3d8161245f565b60408051634b9ade4760e01b81526001600160a01b0387811660048301528681166024830152604482018690528415156064830152915191881691634b9ade479160848082019260009290919082900301818387803b158015610f9f57600080fd5b505af1158015610fb3573d6000803e3d6000fd5b50505050505050505050565b6001546001600160a01b0316331461100c576040805162461bcd60e51b81526020600482015260136024820152600080516020612605833981519152604482015290519081900360640190fd5b604080517239b2ba283934b1b2a332b2b22bb0ba31b432b960691b6020808301919091526001600160601b0319606087811b8216603385015286901b16604783015283151560f81b605b8301528251603c818403018152605c909201909252805191012061107981612504565b604080516001600160a01b038087168252851660208201528315158183015290517f6ab3018654d3055eae2cb61d3dffe4cbb30f257d54ec966059b4d00b325a36699181900360600190a150505050565b6001546001600160a01b03163314611117576040805162461bcd60e51b81526020600482015260136024820152600080516020612605833981519152604482015290519081900360640190fd5b6040805176707269636546656564536574546f6b656e436f6e66696760481b6020808301919091526001600160601b0319606089811b8216603785015288811b8216604b85015287901b16605f8301526073820185905283151560f81b6093830152825160748184030181526094909201909252805191012061119981612504565b604080516001600160a01b038089168252808816602083015286168183015260608101859052831515608082015290517f1b2ddf357ae016d8c127dcd3a73c34744fdeaeeb4b7ef1e04490cebf7f4816fe9181900360a00190a1505050505050565b6001546001600160a01b03163314611248576040805162461bcd60e51b81526020600482015260136024820152600080516020612605833981519152604482015290519081900360640190fd5b816001600160a01b031663b70c7b70826040518263ffffffff1660e01b815260040180828152602001915050600060405180830381600087803b158015610b8957600080fd5b6001546001600160a01b031633146112db576040805162461bcd60e51b81526020600482015260136024820152600080516020612605833981519152604482015290519081900360640190fd5b816001600160a01b031663ce98dfa8826040518263ffffffff1660e01b8152600401808215158152602001915050600060405180830381600087803b158015610b8957600080fd5b6001546001600160a01b03163314611370576040805162461bcd60e51b81526020600482015260136024820152600080516020612605833981519152604482015290519081900360640190fd5b816001600160a01b031663fd34ec40826040518263ffffffff1660e01b8152600401808215158152602001915050600060405180830381600087803b158015610b8957600080fd5b60046020526000908152604090205460ff1681565b6001546001600160a01b0316331461141a576040805162461bcd60e51b81526020600482015260136024820152600080516020612605833981519152604482015290519081900360640190fd5b604080516c3bb4ba34323930bbaa37b5b2b760991b6020808301919091526001600160601b0319606088811b8216602d85015287811b8216604185015286901b1660558301526069808301859052835180840390910181526089909201909252805191012061148881612504565b604080516001600160a01b0380881682528087166020830152851681830152606081018490526080810183905290517f9ed7b0f07a9eed51079fab67f6d0f141f167f5b17fdb5a23282280e15fcafed39181900360a00190a15050505050565b6001546001600160a01b03163314611535576040805162461bcd60e51b81526020600482015260136024820152600080516020612605833981519152604482015290519081900360640190fd5b604080517239b2ba283934b1b2a332b2b22ab83230ba32b960691b6020808301919091526001600160601b0319606087811b8216603385015286901b16604783015283151560f81b605b8301528251603c818403018152605c90920190925280519101206115a2816123b3565b6115ab8161245f565b836001600160a01b0316631a15339184846040518363ffffffff1660e01b815260040180836001600160a01b03168152602001821515815260200192505050600060405180830381600087803b158015610d1c57600080fd5b6001546001600160a01b03163314611651576040805162461bcd60e51b81526020600482015260136024820152600080516020612605833981519152604482015290519081900360640190fd5b604080516539b2ba23b7bb60d11b6020808301919091526001600160601b0319606086811b8216602685015285901b16603a8301528251602e818403018152604e90920190925280519101206116a6816123b3565b6116af8161245f565b826001600160a01b031663cfad57a2836040518263ffffffff1660e01b815260040180826001600160a01b03168152602001915050600060405180830381600087803b1580156116fe57600080fd5b505af1158015611712573d6000803e3d6000fd5b50505050505050565b6001546001600160a01b03163314611768576040805162461bcd60e51b81526020600482015260136024820152600080516020612605833981519152604482015290519081900360640190fd5b6001600160a01b0382163014156117c2576040805162461bcd60e51b8152602060048201526019602482015278151a5b595b1bd8dace881a5b9d985b1a590817dd185c99d95d603a1b604482015290519081900360640190fd5b816001600160a01b031663704b6c02826040518263ffffffff1660e01b815260040180826001600160a01b03168152602001915050600060405180830381600087803b158015610b8957600080fd5b6001546001600160a01b0316331461185e576040805162461bcd60e51b81526020600482015260136024820152600080516020612605833981519152604482015290519081900360640190fd5b816001600160a01b0316639917dc74826040518263ffffffff1660e01b8152600401808215158152602001915050600060405180830381600087803b158015610b8957600080fd5b6001546001600160a01b03163314806118ce57503360009081526004602052604090205460ff165b61190d576040805162461bcd60e51b81526020600482015260136024820152600080516020612605833981519152604482015290519081900360640190fd5b816001600160a01b0316638b7677f4826040518263ffffffff1660e01b815260040180828152602001915050600060405180830381600087803b158015610b8957600080fd5b6206978081565b60056020526000908152604090205460ff1681565b6002546001600160a01b031633146119bc576040805162461bcd60e51b81526020600482015260136024820152600080516020612605833981519152604482015290519081900360640190fd5b600180546001600160a01b0319166001600160a01b0392909216919091179055565b6001546001600160a01b03163314611a2b576040805162461bcd60e51b81526020600482015260136024820152600080516020612605833981519152604482015290519081900360640190fd5b611a348161245f565b50565b6001546001600160a01b03163314611a84576040805162461bcd60e51b81526020600482015260136024820152600080516020612605833981519152604482015290519081900360640190fd5b604080516539b2ba23b7bb60d11b6020808301919091526001600160601b0319606086811b8216602685015285901b16603a8301528251602e818403018152604e9092019092528051910120611ad981612504565b604080516001600160a01b0380861682528416602082015280820183905290517f2701a94fd55a560e291f3c54d36580040670d6fde558a77a75d619e38139f7139181900360600190a1505050565b6001546001600160a01b03163314611b75576040805162461bcd60e51b81526020600482015260136024820152600080516020612605833981519152604482015290519081900360640190fd5b816001600160a01b0316632fbfe3d3826040518263ffffffff1660e01b815260040180828152602001915050600060405180830381600087803b158015610b8957600080fd5b6001546001600160a01b03163314611c08576040805162461bcd60e51b81526020600482015260136024820152600080516020612605833981519152604482015290519081900360640190fd5b62069780811115611c5c576040805162461bcd60e51b81526020600482015260196024820152782a34b6b2b637b1b59d1034b73b30b634b2102fb13ab33332b960391b604482015290519081900360640190fd5b6000548111611c9c5760405162461bcd60e51b81526004018080602001828103825260248152602001806125e16024913960400191505060405180910390fd5b600055565b6001546001600160a01b0316331480611cc957503360009081526004602052604090205460ff165b611d08576040805162461bcd60e51b81526020600482015260136024820152600080516020612605833981519152604482015290519081900360640190fd5b816001600160a01b03166344c23193826040518263ffffffff1660e01b815260040180828152602001915050600060405180830381600087803b158015610b8957600080fd5b6001546001600160a01b03163314611d9b576040805162461bcd60e51b81526020600482015260136024820152600080516020612605833981519152604482015290519081900360640190fd5b816001600160a01b031663de0d1b94826040518263ffffffff1660e01b815260040180828152602001915050600060405180830381600087803b158015610b8957600080fd5b6001546001600160a01b03163314611e2e576040805162461bcd60e51b81526020600482015260136024820152600080516020612605833981519152604482015290519081900360640190fd5b816001600160a01b031663d6a153f1826040518263ffffffff1660e01b815260040180828152602001915050600060405180830381600087803b158015610b8957600080fd5b6001546001600160a01b03163314611ec1576040805162461bcd60e51b81526020600482015260136024820152600080516020612605833981519152604482015290519081900360640190fd5b6001600160a01b03919091166000908152600560205260409020805460ff1916911515919091179055565b6001546001600160a01b03163314611f39576040805162461bcd60e51b81526020600482015260136024820152600080516020612605833981519152604482015290519081900360640190fd5b604080517239b2ba283934b1b2a332b2b22ab83230ba32b960691b6020808301919091526001600160601b0319606087811b8216603385015286901b16604783015283151560f81b605b8301528251603c818403018152605c909201909252805191012061107981612504565b6001546001600160a01b03163314611ff3576040805162461bcd60e51b81526020600482015260136024820152600080516020612605833981519152604482015290519081900360640190fd5b6040805166617070726f766560c81b6020808301919091526001600160601b0319606087811b8216602785015286901b16603b830152604f80830185905283518084039091018152606f909201909252805191012061205181612504565b604080516001600160a01b038087168252851660208201528082018490526060810183905290517f6af9d86ba7407a934e941ed8ae5f779369a88fe8ba2cd1c204185d6f8a8287fd9181900360800190a150505050565b6001546001600160a01b031633146120f5576040805162461bcd60e51b81526020600482015260136024820152600080516020612605833981519152604482015290519081900360640190fd5b6040805166617070726f766560c81b6020808301919091526001600160601b0319606087811b8216602785015286901b16603b830152604f80830185905283518084039091018152606f9092019092528051910120612153816123b3565b61215c8161245f565b836001600160a01b031663095ea7b384846040518363ffffffff1660e01b815260040180836001600160a01b0316815260200182815260200192505050602060405180830381600087803b1580156121b357600080fd5b505af11580156121c7573d6000803e3d6000fd5b505050506040513d6020811015610b9d57600080fd5b60036020526000908152604090205481565b6001546001600160a01b0316331461223c576040805162461bcd60e51b81526020600482015260136024820152600080516020612605833981519152604482015290519081900360640190fd5b604080516323b872dd60e01b81526001600160a01b038581166004830152306024830152604482018490529151918416916323b872dd916064808201926020929091908290030181600087803b15801561229557600080fd5b505af11580156122a9573d6000803e3d6000fd5b505050506040513d60208110156122bf57600080fd5b5050505050565b6001546001600160a01b03163314806122ee57503360009081526004602052604090205460ff165b8061230857503360009081526005602052604090205460ff165b612347576040805162461bcd60e51b81526020600482015260136024820152600080516020612605833981519152604482015290519081900360640190fd5b826001600160a01b0316639b88938083836040518363ffffffff1660e01b815260040180836001600160a01b0316815260200182815260200192505050600060405180830381600087803b1580156116fe57600080fd5b60005481565b6001546001600160a01b031681565b600081815260036020526040902054612413576040805162461bcd60e51b815260206004820152601e60248201527f54696d656c6f636b3a20616374696f6e206e6f74207369676e616c6c65640000604482015290519081900360640190fd5b6000818152600360205260409020544211611a345760405162461bcd60e51b81526004018080602001828103825260248152602001806125bd6024913960400191505060405180910390fd5b6000818152600360205260409020546124bb576040805162461bcd60e51b81526020600482015260196024820152782a34b6b2b637b1b59d1034b73b30b634b2102fb0b1ba34b7b760391b604482015290519081900360640190fd5b600081815260036020908152604080832092909255815183815291517f194ed6dd5e37e2acc44a19455c3f208c4831ee695fe362d9c4ef2d316bc53aec9281900390910190a150565b60005461251290429061255d565b60008281526003602090815260409182902092909255805183815290517f5fb9c0ecf7b4a28c4c480212e868f9da7f373a2ed4d23498b0be6aadf35242fb929181900390910190a150565b6000828201838110156125b5576040805162461bcd60e51b815260206004820152601b60248201527a536166654d6174683a206164646974696f6e206f766572666c6f7760281b604482015290519081900360640190fd5b939250505056fe54696d656c6f636b3a20616374696f6e2074696d65206e6f74207965742070617373656454696d656c6f636b3a206275666665722063616e6e6f742062652064656372656173656454696d656c6f636b3a20666f7262696464656e00000000000000000000000000a26469706673582212206d5c7c5a11a2684a639d4ff5208791be0002d4baa5e6c29604f83eef8560202d64736f6c634300060c0033",
  "linkReferences": {},
  "deployedLinkReferences": {}
}