{
  "_format": "hh-sol-artifact-1",
  "contractName": "UniFactory",
  "sourceName": "contracts/amm/UniFactory.sol",
  "abi": [
    {
      "inputs": [
        {
          "internalType": "address",
          "name": "",
          "type": "address"
        },
        {
          "internalType": "address",
          "name": "",
          "type": "address"
        },
        {
          "internalType": "uint24",
          "name": "",
          "type": "uint24"
        }
      ],
      "name": "getPool",
      "outputs": [
        {
          "internalType": "address",
          "name": "",
          "type": "address"
        }
      ],
      "stateMutability": "view",
      "type": "function"
    }
  ],
  "bytecode": "0x608060405234801561001057600080fd5b5060e38061001f6000396000f3fe6080604052348015600f57600080fd5b506004361060285760003560e01c80631698ee8214602d575b600080fd5b606660048036036060811015604157600080fd5b5080356001600160a01b03908116916020810135909116906040013562ffffff166082565b604080516001600160a01b039092168252519081900360200190f35b600060208181529381526040808220855292815282812090935282529020546001600160a01b03168156fea26469706673582212206253fc999eefb1710489eb5820684b4c8e535595f3ab2f37d188295791f1822964736f6c634300060c0033",
  "linkReferences": {},
  "deployedLinkReferences": {}
}